:100000000C946D020C949A020C949A020C949A022D
:100010000C949A020C949A020C949A020C949A02F0
:100020000C949A020C949A020C949A020C949A02E0
:100030000C949A020C9456330C949A020C949A02E3
:100040000C949A020C949A020C949A020C949A02C0
:100050000C949A020C949A020C949A020C946842A2
:100060000C949A020C94603A0C94AC3B0C949A0257
:100070000C949A020C949A020C949A020C949A0290
:100080000C949A020C949A020C949A020C949A0280
:100090000C94A03A0C94EB3B0C949A020C94FA3812
:1000A0000C949A020C949A020C949A020C949A0260
:1000B0000C949A020C949A020C949A020C949A0250
:1000C0000C949A020C949A020C949A020C94E03AC2
:1000D0000C942A3C0C949A020C94203B0C94693C9E
:1000E0000C949A02B3394C394C394C394C394C394F
:1000F0004C394C39BD394C394C394C394C394C3967
:100100004C394C39BD394C394C394C394C394C3956
:100110004C394C39C5394C394C394C394C394C393E
:100120004C394C39D9394C394C394C394C394C391A
:100130004C394C39C5394C394C394C394C394C391E
:100140004C394C397B394C394C394C394C394C3958
:100150004C394C3988394C394C394C394C394C393B
:100160004C394C3974394C394C394C394C394C393F
:100170004C394C39093A4C394C394C394C394C3999
:100180004C394C3968394C394C394C394C394C392B
:100190004C394C3991394C394C394C394C394C39F2
:1001A0004C394C39AA394C394C394C394C394C39C9
:1001B0004C394C39AA394C394C394C394C394C39B9
:1001C0004C394C39AA394C394C394C394C394C39A9
:1001D0004C394C39AA394C394C394C394C394C3999
:1001E0004C394C395F394C394C394C394C394C39D4
:1001F0004C394C3964394C394C394C394C394C39BF
:100200004C394C395F394C394C394C394C394C39B3
:100210004C394C3964394C394C394C394C394C399E
:100220004C394C39E4394C394C394C394C394C390E
:100230004C394C3922394C394C394C394C394C39C0
:100240004C394C3922394C394C394C394C394C39B0
:100250004C394C3937394C394C394C394C394C398B
:100260004C394C39033A4C394C394C394C394C39AE
:100270004C394C39033A005EBCE2613FDD83C29CDD
:100280007E20A3FD1F419DC3217FFCA2401E5F0174
:10029000E3BD3E6082DC237D9FC1421CFEA0E1BF26
:1002A0005D0380DE3C62BEE0025CDF81633D7C2258
:1002B000C09E1D43A1FF4618FAA427799BC584DA86
:1002C0003866E5BB5907DB856739BAE40658194734
:1002D000A5FB7826C49A653BD987045AB8E6A7F9E6
:1002E0001B45C6987A24F8A6441A99C7257B3A6418
:1002F00086D85B05E7B98CD2306EEDB3510F4E1046
:10030000F2AC2F7193CD114FADF3702ECC92D38DF3
:100310006F31B2EC0E50AFF1134DCE90722C6D33A5
:10032000D18F0C52B0EE326C8ED0530DEFB1F0AED7
:100330004C1291CF2D73CA947628ABF51749085605
:10034000B4EA6937D58B5709EBB536688AD495CBB3
:100350002977F4AA4816E9B7550B88D6346A2B7565
:1003600097C94A14F6A8742AC896154BA9F7B6E897
:100370000A54D7896B3500002100240027002A0089
:100380002D003000330001010000040107010A01C3
:1003900000002200250028002B002E003100340030
:1003A00002010000050108010B01000020002300EC
:1003B000260029002C002F0032000001000003015C
:1003C00006010901050505050705080808080202D8
:1003D00002020A0A080804040404010101010101DF
:1003E00001010303030303030303040707070C0CC2
:1003F0000C0C0C0C0C0C0202020206060606060689
:1004000006060B0B0B0B0B0B0B0B0102102020082D
:10041000081020401020408002010201080402015F
:1004200001020408102040808040201008040201CE
:100430008004020180402010080402010804020127
:1004400001020408102040800102040810204080AE
:100450000000090A02080B0C0D0706030401000046
:10046000000000000000000000000000000000008C
:1004700000000000000000000000000011100F004C
:10048000000000000000000000000000000000006C
:10049000000000000000494E46494E4954594E4163
:1004A0004ECDCCCC3D0AD7233C17B7D13877CC2BD7
:1004B000329595E6241FB14F0A000020410000C884
:1004C0004200401C4620BCBE4CCA1B0E5AAEC59D05
:1004D00074002E217A37DC3D272111241FBECFEF77
:1004E000D1E2DEBFCDBF00E00CBF1AE0A0E0B2E079
:1004F000E4EBF1E900E00BBF02C007900D92A237D8
:10050000B107D9F71BBE10E1A2E7BAE001C01D9206
:10051000A33AB107E1F714E0C8EDD4E004C0229794
:10052000FE010E948748C23DD107C9F70E94123FD1
:100530000C94CD480C940000CF93DF93BC01823023
:10054000910510F462E070E0A0919F10B091A010AE
:10055000ED01E0E0F0E040E050E021C088819981C9
:100560008617970769F48A819B81309719F09383E6
:10057000828304C09093A01080939F10FE0134C02A
:100580006817790738F44115510519F08417950754
:1005900008F4AC01FE018A819B819C01E90120974E
:1005A000E9F641155105A9F1CA01861B970B04977D
:1005B00008F4BA01E0E0F0E02AC08D919C91119717
:1005C00084179507F9F46417750781F412968D91D5
:1005D0009C911397309719F09383828304C0909372
:1005E000A01080939F10FD0132964CC0CA01861B5B
:1005F000970BFD01E80FF91F6193719302978D939B
:100600009C9340C0FD01828193819C01D901109788
:10061000A1F680919D1090919E10892B41F48091BC
:100620004A0890914B0890939E1080939D104091A2
:100630004C0850914D084115510541F44DB75EB736
:100640008091480890914908481B590B20919D10B2
:1006500030919E10CA01821B930B8617970780F07A
:10066000AB014E5F5F4F8417950750F0420F531F49
:1006700050939E1040939D10F9016193719302C0B5
:10068000E0E0F0E0CF01DF91CF910895CF93DF93C9
:10069000009709F450C0EC0122971B821A82A091A6
:1006A0009F10B091A010109709F140E050E0AC17F6
:1006B000BD0708F1BB83AA83FE0121913191E20FAE
:1006C000F31FAE17BF0779F48D919C911197280FF6
:1006D000391F2E5F3F4F3983288312968D919C914D
:1006E00013979B838A834115510571F4D093A01011
:1006F000C0939F1020C012968D919C911397AD01CD
:10070000009711F0DC01D3CFFA01D383C28321918A
:100710003191E20FF31FCE17DF0769F488819981C9
:10072000280F391F2E5F3F4FFA01318320838A81C2
:100730009B8193838283DF91CF910895A0E0B0E005
:10074000E4EAF3E00C949E48EC01A880B980CA80EA
:10075000DB80A114B104C104D10441F484E2A82EC9
:1007600089EDB82E8BE5C82E87E0D82EC601B501DD
:100770002DE133EF41E050E00E94564827EA31E492
:1007800040E050E00E94F6477B018C01C601B501B4
:100790002DE133EF41E050E00E945648CA01B90113
:1007A0002CEE34EF4FEF5FEF0E94F6476E0D7F1D8A
:1007B000801F911F97FF04C0615070408040904897
:1007C000688379838A839B839B01AC015F77B9013E
:1007D000CA01CDB7DEB7EAE00C94BA480E949E0386
:1007E00008958EE498E00E949E03089560934E0859
:1007F00070934F088093500890935108089566278E
:1008000077270C946E06FC0188279927E89421919C
:100810002032E9F3293010F02E30C8F32B3241F0AA
:100820002D3239F4689404C00E946504820F911D32
:10083000219120532A30C0F31EF4909581959F4F4B
:100840000895FB01DC0102C001900D92415050401F
:10085000D8F70895FB01DC018D91019080190110FA
:10086000D9F3990B0895009731F4DA018D919C9199
:10087000009709F40EC0DC01FB013D912191222378
:1008800019F03217C9F3FACF332331F4DA011D928C
:100890001C928827992708951197AF93BF93FB0166
:1008A0003D912191321771F4332321F48827992740
:1008B000119702C01E921196FA01A193B0839F91E5
:1008C0008F910895222369F7EACF7AE0979F902DC0
:1008D000879F802D910D11240895AEE0B0E0E3E7ED
:1008E000F4E00C94A4480E891F8986E08C831A8357
:1008F00009838FEF9FE79E838D839E01265E3F4F86
:10090000CE010196688D798DA9010E9491042F81F5
:100910003885020F131FF80110822E96E4E00C9424
:10092000C048ABE0B0E0E7E9F4E00C9496483C0145
:100930002B015A01FC0117821682838181FD03C0BD
:100940006FEF7FEFC6C19AE0892E1E010894211C2B
:10095000311CF3012381F20123FD859123FF819155
:100960002F01882309F4B2C1853239F423FD859122
:1009700023FF81912F01853229F490E0B3010E9479
:10098000FC07E7CF982FFF24EE249924FFE1FF1501
:10099000D0F09B3269F09C3228F4903259F09332B7
:1009A00091F40EC09D3249F0903369F441E024C0C7
:1009B00052E0F52A84E0F82A28C098E0F92A25C0F8
:1009C000E0E1FE2A22C0F7FC29C0892F80538A303B
:1009D00070F4F6FE05C0989C902C1124980E15C05A
:1009E000E89CE02C1124E80EF0E2FF2A0EC09E32B3
:1009F00029F4F6FC6BC140E4F42A07C09C3619F4D4
:100A000050E8F52A02C0983649F4F20123FD959189
:100A100023FF91912F01992309F0B8CF892F855495
:100A2000833018F08052833038F444E050E0A40E54
:100A3000B51E5FE359830FC0933631F0933779F0D9
:100A4000933509F056C020C0F5018081898342E0CA
:100A500050E0A40EB51E610101E010E012C0F501E6
:100A6000C080D180F6FC03C06FEF7FEF02C0692D1C
:100A700070E042E050E0A40EB51EC6010E94F107EE
:100A80008C015FE7F52214C0F501C080D180F6FC2F
:100A900003C06FEF7FEF02C0692D70E042E050E0CD
:100AA000A40EB51EC6010E94E6078C0150E8F52A87
:100AB000F3FE07C01AC080E290E0B3010E94FC0779
:100AC000EA948E2D90E008171907A8F30EC0F601DE
:100AD000F7FC8591F7FE81916F0190E0B3010E94D0
:100AE000FC07E110EA94015010400115110579F757
:100AF000EAC0943611F0993669F5F7FE08C0F501A1
:100B0000208131814281538184E090E00AC0F50167
:100B1000808191819C01442737FD4095542F82E0CC
:100B200090E0A80EB91E9FE6F92257FF09C0509524
:100B30004095309521953F4F4F4F5F4FE0E8FE2A9B
:100B4000CA01B901A1012AE030E00E942808D82E8C
:100B5000D21840C0953729F41F2D1F7E2AE030E0BF
:100B60001DC01F2D197F9F3661F0903720F49835F6
:100B700009F0ACC00FC0903739F0983709F0A6C023
:100B800004C028E030E00AC0106114FD146020E1C8
:100B900030E004C014FD166020E132E017FF08C009
:100BA000F501608171818281938144E050E008C049
:100BB000F50180819181BC0180E090E042E050E04D
:100BC000A40EB51EA1010E942808D82ED2188FE7C6
:100BD000F82EF122F6FE0BC05EEFF522D91438F4A0
:100BE000F4FE07C0F2FC05C08FEEF82202C01D2DF6
:100BF00001C0192DF4FE0DC0FE01ED0DF11D808127
:100C0000803319F499EEF92208C01F5FF2FE05C087
:100C100003C08F2D867809F01F5F0F2DF3FC14C0E1
:100C2000F0FE0FC01E1510F09D2C0BC09D2C9E0CCD
:100C3000911A1E2D06C080E290E0B3010E94FC07CD
:100C40001F5F1E15C0F304C01E1510F4E11A01C089
:100C5000EE2404FF0FC080E390E0B3010E94FC0784
:100C600002FF1DC001FD03C088E790E00EC088E5CB
:100C700090E00BC0802F867891F001FF02C08BE2DC
:100C800001C080E2F7FC8DE290E0B3010E94FC0716
:100C900006C080E390E0B3010E94FC079A94D91447
:100CA000C0F3DA94F101ED0DF11D808190E0B30104
:100CB0000E94FC07DD20A9F706C080E290E0B301A6
:100CC0000E94FC07EA94EE20C1F743CEF30166814F
:100CD0007781CB012B96E2E10C94B248A0E0B0E022
:100CE000E4E7F6E00C949C48EC015B0161157105AA
:100CF00019F0FB0191838083F9908F2D90E00E9481
:100D00008B48892BC9F7FDE2FF1621F4F990EE24F8
:100D1000E39405C02BE2F21609F4F990EE248E015B
:100D200001501040C80166E974E043E050E00E94C1
:100D3000CE07892B01F58E010E5F1F4FC80169E9AF
:100D400074E045E050E00E94CE07892B19F48E0133
:100D5000095F1F4FA114B10419F0F501118300833D
:100D6000E0FC04C070E090E080E814C070E090E027
:100D700080E86FEF08C1C8016EE974E043E050E01D
:100D80000E94CE07892B69F4A114B10429F470E004
:100D900090E080EC6FE7F7C02296F501D183C08325
:100DA000F6CF8824992440E050E060E070E0EF2D19
:100DB000E053EA30A0F5F2E0EF2A8E2D90E09C019E
:100DC00028703070E2FE06C0232B79F50894811C50
:100DD000911C2BC0232B19F0089481089108DB018A
:100DE000CA0112E0880F991FAA1FBB1F1A95D1F7DD
:100DF000480F591F6A1F7B1F440F551F661F771F1F
:100E00004E0F511D611D711D483929E9520729E90D
:100E1000620729E1720748F084E0E82A06C0EE3F45
:100E200031F4E3FC39C098E0E92AF990C0CFE5330A
:100E300011F0E53189F529912D3219F4E0E1EE2A1E
:100E400005C02B3219F081E090E003C0299182E0C7
:100E500090E0E22FE053EA3018F0C81BD90B1CC019
:100E600020E030E0FCE020383F075CF4C901880F47
:100E7000991F880F991F280F391F220F331F2E0F1C
:100E8000311DE991E053EA3068F3E4FE03C0309588
:100E900021953F4F820E931ECE2CDD24E1FE07C02C
:100EA000A114B10421F02197F501D183C083CB01B6
:100EB000BA010E94D9467B018C01F3E0CF22DD24E8
:100EC00023E0C216D10421F417FB109517F91095F1
:100ED00057016801C801B70120E030E040E050E070
:100EE0000E943C46882309F44AC097FE0DC025EBBA
:100EF000E22E24E0F22E9094819491089394C0E223
:100F0000D0E000E010E012C09DECE92E94E0F92E54
:100F1000F6CFF7012591359145915491C601B50160
:100F20000E948F475B016C018C1A9D0A8C169D06EE
:100F300084F7D595C7950F5F1F4F0630110529F02F
:100F40008CEF9FEFE80EF91EF1CFC501D6017C01B1
:100F50008D018C2D880F8D2D881F8F3F51F0C6017C
:100F6000B50120E030E040E050E00E943C4688239C
:100F700031F482E290E09093A2108093A1107E2D34
:100F80009F2D802F612F272F392F482F562FB901E2
:100F9000CA01CDB7DEB7ECE00C94B848FB01DC0128
:100FA0004150504088F08D9181341CF08B350CF409
:100FB000805E659161341CF06B350CF4605E861BBD
:100FC000611171F3990B0895881BFCCFFC0105900A
:100FD000615070400110D8F7809590958E0F9F1F3B
:100FE0000895FC016150704001900110D8F7809580
:100FF00090958E0F9F1F08950F931F93CF93DF93AC
:101000008C01EB018B8181FF1BC082FF0DC02E8103
:101010003F818C819D812817390764F4E881F9812B
:101020000193F983E88306C0E885F985802F199537
:10103000892B31F48E819F8101969F838E8302C01C
:101040000FEF1FEFC801DF91CF911F910F9108950E
:10105000FA01AA27283051F1203181F1E8946F93E9
:101060006E7F6E5F7F4F8F4F9F4FAF4FB1E03ED08F
:10107000B4E03CD0670F781F891F9A1FA11D680F2D
:10108000791F8A1F911DA11D6A0F711D811D911D60
:10109000A11D20D009F468943F912AE0269F1124D5
:1010A0003019305D3193DEF6CF010895462F477039
:1010B000405D4193B3E00FD0C9F7F6CF462F4F7094
:1010C000405D4A3318F0495D31FD4052419302D0F2
:1010D000A9F7EACFB4E0A695979587957795679598
:1010E000BA95C9F700976105710508959B01AC0198
:1010F0000A2E06945795479537952795BA95C9F7BF
:10110000620F731F841F951FA01D0895FC018EEAB6
:1011100099E0918380831282138214821582168251
:101120001782108611860895FC018EEA99E091835A
:10113000808342835383648375831682178210866B
:1011400011860895FC018EEA99E0918380830895C9
:10115000FC018EEA99E09183808308950895EF92CF
:10116000FF920F931F93CF93DF93EC010E94B04245
:101170007B018C018E819F81A885B985A80197018B
:10118000281B390B4A0B5B0B8A819B81AC81BD818B
:10119000281739074A075B0758F0E881F98100846E
:1011A000F185E02DCE011995EE82FF82088719871F
:1011B000DF91CF911F910F91FF90EF9008950F93C2
:1011C0001F938C010E94B042F80166837783808769
:1011D00091871F910F910895FC018EEA99E0918308
:1011E0008083CF010E94273F0895089508950A97AC
:1011F0000E94FB08089508950F931F938C01FC0132
:1012000013A20E94B042F801658B768B878B908F7A
:101210001F910F9108950F931F938C01FC0112A24F
:101220000E94B042F801658B768B878B908F1F915F
:101230000F910895CF93DF93EC011DA21CA2672BA1
:1012400071F08EE290E1BA010E9408410E94B04222
:10125000698F7A8F8B8F9C8FDF91CF9108958CE06F
:1012600090E1BA010E940841F1CF0F931F930A97B2
:101270000E943D091F910F9108958F929F92AF9206
:10128000BF92CF92DF92EF92FF920F931F93CF9373
:10129000DF936C017A01B22EA32E48016A307105EA
:1012A000E9F06B30710509F450C08CE090E165E520
:1012B00072E00E94084120E030E040E050E0B901D7
:1012C000CA01DF91CF911F910F91FF90EF90DF90B6
:1012D000CF90BF90AF909F908F9008958CE090E159
:1012E00060E072E00E94E9401E141F04BCF48B2DE4
:1012F0009A2D9C01E90100E010E0699179918CE060
:1013000090E10E94E9408CE090E162E172E00E948D
:10131000E9400F5F1F4F0E151F057CF38CE090E135
:101320000E94593FF60184859585019721F6C601F3
:1013300061E070E044E152E00E941A09F401108279
:1013400020E030E040E050E0BACF4115510531F0E7
:101350008CE090E166E272E00E94084181E0F601D3
:1013600081A38CE090E16AE372E00E940841F601FB
:10137000258D368D478D50A1A2CFCF93DF93EC0101
:101380001DA21CA2672B89F08EE290E1BA01A9018F
:101390002AE030E00E94B6400E94B042698F7A8F06
:1013A0008B8F9C8FDF91CF9108958CE090E1BA01F3
:1013B000A9012AE030E00E94B640EECFCF93DF9340
:1013C000EC011DA21CA2672B81F08EE290E1BA0114
:1013D0004AE050E00E94CA400E94B042698F7A8F72
:1013E0008B8F9C8FDF91CF9108958CE090E1BA01B3
:1013F0004AE050E00E94CA40EFCFCF93DF93EC0168
:101400001DA21CA2672B89F08EE290E1BA01A9010E
:1014100022E030E00E9455420E94B042698F7A8FEC
:101420008B8F9C8FDF91CF9108958CE090E1BA0172
:10143000A90122E030E00E945542EECFFF920F93C7
:101440001F93CF93DF93EC018B016115710561F45C
:101450008CE090E10E94373D892BC1F5DF91CF915F
:101460001F910F91FF9008958EE290E10E94373D09
:10147000892BA1F38EE290E10E94483D892B71F304
:10148000FC88FEE1FF1548F10115110509F047C080
:101490008CE090E10E94693DFE01EF0DF11D86A3F5
:1014A0008C89FE01E80FF11D96A18F5F8C8B9A301D
:1014B000A9F68F3120F4FE01E80FF11D16A282E09B
:1014C00090E09DA38CA31D870C87C8CF8CE090E192
:1014D0000E94483D892B11F2D3CFCB5BDF4F88812F
:1014E000C554D0408A3009F4B9CF8CE090E169E668
:1014F00072E00E94E9408E010A5D1F4F8CE090E18E
:10150000B8010E94084180E2F80111928A95E9F73A
:101510001C8ADF91CF911F910F91FF9008958EE269
:1015200090E10E94693DB8CF2F923F924F925F9217
:101530006F927F928F929F92AF92BF92CF92DF92E3
:10154000EF92FF920F931F93DF93CF93CDB7DEB748
:1015500067970FB6F894DEBF0FBECDBF6C016DB6B6
:101560007EB6DC0194968D919C919597009729F118
:101570008130910509F43EC0029709F458C00FB6B6
:10158000F8947EBE0FBE6DBE67960FB6F894DEBFB0
:101590000FBECDBFCF91DF911F910F91FF90EF90C4
:1015A000DF90CF90BF90AF909F908F907F906F9083
:1015B0005F904F903F902F9008950E94B042F601A7
:1015C000218D328D438D548D621B730B840B950BD3
:1015D0006B3071058105910590F2D60159961D92E7
:1015E0001D921D921C925C9781E090E095969C93D1
:1015F0008E939497F60182A1882309F450C0F601D6
:1016000083A1882309F471C0C60160E070E00E94E4
:101610001E0AD60194968D919C919597019709F099
:10162000AECFC60161E070E00E941E0AA8CFD601CD
:1016300059961D921D921D921C925C970E94BE426B
:1016400066E2262E312C2C0C3D1C52E0E52EF12CAE
:10165000EC0EFD1EC10162E172E0A7010E9433049D
:101660004A805B80009709F476C05C0100E010E0DE
:101670004E010894811C911C80E090E062E172E0D0
:10168000A7010E9433049C01009709F467C01F5F03
:1016900009F450C0113009F04FC02901EDCF0E946C
:1016A000B042D60155962D913D914D915C91589740
:1016B000621B730B840B950B6958734180409040FB
:1016C00008F49DCF0E94B042F601658B768B878B24
:1016D000908FC60161E070E046E752E00E941A096F
:1016E00081E0D60192968C934ACF0E94B042F601D7
:1016F000258936894789508D621B730B840B950BA6
:10170000695873418040904008F47ECF0E94B042F7
:10171000D60155966D937D938D939C935897C601F2
:1017200061E070E041E852E00E941A0981E0F601B0
:1017300083A325CF5C01A0CF812F8250883008F091
:101740009BCFE02FF0E0EE0FFF1FE80DF91D348373
:1017500023830F5F91CFAA24BB2400E0C2016AE873
:1017600072E00E942A040097E1F5F60186849784CE
:101770008114910409F460C0C50166E972E00E9419
:101780002A040097E1F5002329F1D401ED91FC91A1
:10179000E480F5808C819D810E9403048C018E8100
:1017A0009F810E94FF039B01AC01C401B801F701B6
:1017B0001995F60164857585C60140E050E00E94E8
:1017C000DE0980E2F10111928A95E9F7D60154967B
:1017D0001C92D5CE8CE090E169E972E00E9408414C
:1017E000D4CFC2016DE872E00E942A04009709F08C
:1017F0008BC0D60150968D909C905197B9CFC50162
:1018000062EB72E00E942A04009741F58C819D8171
:101810000E940304BC01D401ED91FC910680F78184
:10182000E02DC40119959B01AC01F6016485758515
:10183000C6010E94FD09C5CF8CE090E169EB72E022
:101840000E940841D6011D961C921E921C9781E0B1
:1018500090E095969C938E939497B3CFC50165EBDA
:1018600072E00E942A04009709F0ABCFFDB6EEB6F5
:10187000402F50E08A0101501040C801880F991F85
:101880002DB73EB7281B390B0FB6F8943EBF0FBEDD
:101890002DBF2F5F3F4FB22EA32E101611068CF4D2
:1018A000DE011696F9019E012C5F3F4F440F551F34
:1018B000240F351F8D919D9181939193A217B307AA
:1018C000C9F781E089838C819D810E940304BC015A
:1018D000D401ED91FC910084F185E02DC401A801B3
:1018E0002B2D3A2D8E010F5F1F4F19959B01AC01D7
:1018F0008981882311F58F2D9E2D9C010FB6F894B8
:101900003EBF0FBE2DBF5DCFC20160E972E00E94F5
:101910002A04009721F4F6018288938829CFC20116
:1019200063E972E00E942A04009709F085CF3AE04B
:10193000832E912C8C0C9D1C1BCFF6016485758524
:10194000C6010E94BD09D7CF0F931F938C018EE271
:1019500090E140E855E260E070E00E94A83C0E94FF
:10196000B042F801658B768B878B908F0E94B042D6
:10197000F801658F768F878F90A304C08EE290E187
:101980000E94693D8EE290E10E94373D892BB1F7BC
:101990008CE090E16DEC72E00E94E9401F910F91A4
:1019A00008950A970E94D50C08950F931F938C01F8
:1019B0008CEB99E0F801918380834496938782872A
:1019C000C8010A960E94C80FC8010E94A2081F9170
:1019D0000F9108950A970E94EE0C08950F931F939C
:1019E0008C018CEB99E0F801918380834496938776
:1019F0008287C8010A960E94C80FC8010E94A208E7
:101A0000C8010E94273F1F910F9108950F931F93C4
:101A10008C010E948608C8010A960E94C20F8CEBB6
:101A200099E0F8019183808344969387828712A27C
:101A300081E083A311A21586148681E090E095A32E
:101A400084A3148A16A21F910F910895FC018EEDB4
:101A500099E091838083CF010E94A2080895FC0140
:101A60008EED99E091838083CF010E94A2080895B2
:101A70000F931F938C018EED99E0F8019183808381
:101A8000C8010E94A208C8010E94273F1F910F9120
:101A900008950F931F938C010E9494088EED99E096
:101AA000F801918380831F910F910895FC01362FD7
:101AB0004D3388F4242F9181920F91839C3318F039
:101AC0009C5391836F5F9081960F9083983110F0B3
:101AD000985190830895842F6CE30E941548292F14
:101AE000842F0E941548682F630FE5CFFC016083A7
:101AF0004183128208950895FC0112821382148298
:101B00001582168217821086118612861386148615
:101B1000158616861786108A118208950895CF9328
:101B2000DF93DB01FA01E9019C918081981718F09D
:101B30002881291728F420E0822FDF91CF91089582
:101B4000821749F0981789F09217B1F021E0822F9F
:101B5000DF91CF91089511966C918181681758F3A8
:101B600020E08981681740F7F1CF20E011969C9121
:101B70008181981708F3EACF20E011969C91898122
:101B80009817D0F6E3CFFB01DA0140813C9143176F
:101B900071F1222369F0341788F5618111965C9107
:101BA000431B8CE3489FC0011124860F851B0895B9
:101BB0004317D8F04317A1F0618111965C91842FEF
:101BC00090E0831B91092CE330E0FC01E29FC0010F
:101BD000E39F900DF29F900D1124860F851B0895B1
:101BE00011965C916181651750F780E008959181AD
:101BF00011968C911197981761F6F7CF4317A9F0BA
:101C0000618111965C913731B0F427E1231B8CE39D
:101C100090E0289F202D11248CE3489F802D1124D3
:101C2000845C860F851B820F0895618111965C91FB
:101C3000561748F7B5CF20E0EFCFFC01628343830E
:101C40006583468384818783CF01059660E0418167
:101C50000E94560D08950F931F938C01FC018085FF
:101C600083878185848741814F5FC8010B9660E03F
:101C70000E94560DF80182818687838187871F9194
:101C80000F910895AF92BF92CF92DF92EF92FF92A1
:101C90000F931F93CF93DF93EC016B011882EB84BA
:101CA000FA80FE1408F448C0EF1409F440C08BE039
:101CB000A82EB12CAC0EBD1E8E010E5F1F4FCE01A3
:101CC000B601A50198010E948F0D882309F045C037
:101CD0008D81F81608F04FC09E012B5F3F4FCE015B
:101CE000B601A8010E948F0D882309F082C0888563
:101CF0008E1508F45EC0E81609F456C08E01085F20
:101D00001F4FCE01B601A50198010E948F0D8823B7
:101D100009F067C0CE01B601A80121E00E94C30D01
:101D20008883882309F45AC025E030E018C09C85D8
:101D30008B81891708F0BBCF8E010E5F1F4F9BE090
:101D4000A92EB12CAC0EBD1ECE01B601A801950185
:101D50000E948F0D882309F0BBCF20E030E0C9013D
:101D6000DF91CF911F910F91FF90EF90DF90CF9077
:101D7000BF90AF900895F816B9F1AE014B5F5F4F79
:101D8000CE01B60198010E948F0D882309F0AFCFD4
:101D9000CE01B601A80121E00E94C30D88838823EB
:101DA00089F123E030E0DBCF9C858985891708F035
:101DB000A5CF8E01085F1F4FCE01B601A801950186
:101DC0000E948F0D882369F0CE01B601A80120E0A2
:101DD0000E94C30D8883882309F0A6CF24E030E059
:101DE000BECF21E030E0BBCF9E818B81891728F6E2
:101DF00073CFCE01B601A80120E00E94C30D8883F5
:101E0000882379F622E030E0AACFFC018081089592
:101E10000F931F93DF93CF93CDB7DEB72A970FB6FB
:101E2000F894DEBF0FBECDBF9C018DB79EB70A9759
:101E30000FB6F8949EBF0FBE8DBFEDB7FEB73196BB
:101E40008E010F5F1F4FADB7BEB712961C930E9356
:101E5000119781E093E093838283D9018C918483ED
:101E6000158211968C9111978683178212968C9108
:101E7000808711860E946D048DB79EB70A960FB6B3
:101E8000F8949EBF0FBE8DBF8CE090E1B8010E9418
:101E900008412A960FB6F894DEBF0FBECDBFCF9192
:101EA000DF911F910F910895CF92DF92EF92FF92F1
:101EB0001F93CF93DF93EC016B017A01122F8CE01B
:101EC00090E160E173E00E94E940C6010E94080FC2
:101ED0008CE090E10E94593F8CE090E16AE173E070
:101EE0000E94E940C7010E94080F8CE090E163E284
:101EF00073E00E94E9408CE090E1612F4AE050E0FD
:101F00000E94534019831C33A0F5F7016081F6014C
:101F100080816817A9F04181682FCE010E941D0EB3
:101F2000F7019181808188879987CE010E942B0ECD
:101F3000DF91CF911F91FF90EF90DF90CF900895A8
:101F4000F7018181F6014181841738F7242F30E0B1
:101F5000281B3109898190E028173907F4F68CE0B5
:101F600090E16EE273E00E940841F60160814181D8
:101F7000D4CF8CE090E169ED72E00E9408418BE3E0
:101F80008983C3CFFC018EEE99E09183808308950D
:101F9000FC018EEE99E0918380830895FC018EEE22
:101FA00099E0918380830895FC018EEE99E09183FE
:101FB0008083CF010E94273F089560E070E080E0B9
:101FC00090E00895FC01848590E08617970789F1D9
:101FD0006487768765876530710524F484E090E036
:101FE0009687858765857685882777FD8095982FE4
:101FF0000E94DB4620E030E048EC52E40E9440467C
:1020000020E030EC4FE754E40E948F470E94AD4639
:1020100020E431E040E050E00E94F6472AE0969547
:102020008795779567952A95D1F770939B00609374
:102030009A0008950F931F930A970E9422101F91F0
:102040000F9108958CE090E168E573E00E940841EB
:1020500008950A970E942D100895FC0161157105DD
:1020600081F465857685882777FD8095982F0E9475
:10207000DB46FB01A82F692F4A2F562FBF01CA014B
:1020800008956130710559F08CE090E16CE673E0E1
:102090000E9408414A2F562FBF01CA010895638943
:1020A000748985899689E5CF0A970E94581008950A
:1020B000EF92FF920F931F93CF93DF93EC0179017F
:1020C0008A01672BF9F48CE090E16FE773E00E94DE
:1020D000E9408CE090E1B801A70122E030E00E94E5
:1020E0005542C801B7010E94A8469B01AC01CE0130
:1020F000B9010E94E20FDF91CF911F910F91FF90E4
:10210000EF9008958CE090E16CE673E00E94084146
:10211000DF91CF911F910F91FF90EF9008956F92F3
:102120007F928F929F92AF92BF92CF92DF92EF9267
:10213000FF920F931F93CF93DF93EC010E94B04265
:102140002F85388949895A89621B730B840B950B3B
:102150006958734180409040D8F5EF89F88DA0818F
:10216000B18116962D913C911797CF01F9011995E0
:10217000E98DFA8DA081B18116962D913C9117972A
:10218000CF01F9011995EB8DFC8DA081B1811696D7
:102190002D913C911797CF01F9011995ED8DFE8D89
:1021A000A081B18116962D913C911797CF01F9012D
:1021B0001995DF91CF911F910F91FF90EF90DF90D4
:1021C000CF90BF90AF909F908F907F906F90089529
:1021D000A98DBA8DED91FC9111970284F385E02DC4
:1021E000CD0119957B018C01AF89B88DED91FC91E2
:1021F00011970284F385E02DCD011995D62EC72EB7
:10220000B82EA92EAB8DBC8DED91FC911197028457
:10221000F385E02DCD011995962E872E782E692E07
:10222000B701C8012D2D3C2D4B2D5A2D0E943C4647
:10223000882324F4ED2CFC2C0B2D1A2DB701C8019A
:10224000292D382D472D562D0E943C46882324F4F5
:10225000E92CF82C072D162D6B897C898D899E8998
:102260009701A8010E943C46882309F45CC0C7017D
:10227000D8018B8B9C8BAD8BBE8BBB24B701C80167
:1022800020E030E040ED51E40E943C4688230CF40D
:1022900060C0B701C80120E030E040EF51E40E9487
:1022A0008B4718165CF4B701C80120E030E04CE021
:1022B00052E40E943C4618160CF045C0CC24DD24A4
:1022C000B701C80120E030E04CE052E40E948B47A7
:1022D000181654F4B701C80120E030E040E252E49F
:1022E0000E943C4618164CF5B701C80120E030E0CA
:1022F00040E252E40E948B471816E4F434E6C32E01
:10230000D12C8CE090E16EE873E00E94E9408CE013
:1023100090E1A701B80122E030E00E945542CE01D1
:10232000B6010E94E20F0E94B0426F87788B898BC2
:102330009A8B13CFBB20B9F3E4CF42E3C42ED12C48
:10234000BB24B394D1CF59E1C52ED12CBB24B39477
:10235000B7CFBB24B3949DCFEF92FF920F931F93FF
:102360007C0182E061E00E94904400E910E0D80125
:102370001C9280E491E0909397008093960081E115
:102380008093910082E061E00E949044F801808196
:1023900080628083F701A789B08DED91FC91119740
:1023A0000480F581E02DCD011995F701A18DB28D45
:1023B000ED91FC9111970480F581E02DCD011995E7
:1023C000F701A38DB48DED91FC9111970480F581F7
:1023D000E02DCD011995F701A58DB68DED91FC91FC
:1023E00011970480F581E02DCD011995D7015796FD
:1023F000ED91FC915897A081B18116962D913C9159
:102400001797CF01F9011995D7015996ED91FC91D4
:102410005A97A081B18116962D913C911797CF01C3
:10242000F9011995D7015B96ED91FC915C97A0811C
:10243000B18116962D913C911797CF01F90119950D
:10244000D7015D96ED91FC915E97A081B1811696C2
:102450002D913C911797CF01F9011995C70160E0C3
:1024600070E00E94E20F0E94B042F7016787708B14
:10247000818B928B8CE090E16DE973E00E940841C2
:10248000C7010E94DF081F910F91FF90EF90089500
:102490000A970E944C1208950F931F938C018CEFA2
:1024A00099E0F80191838083469693878287C801DB
:1024B0000A960E94C80FC8010E942F0D1F910F910C
:1024C00008950A970E94651208950F931F938C0137
:1024D0008CEF99E0F80191838083469693878287F9
:1024E000C8010A960E94C80FC8010E942F0DC8019A
:1024F0000E94273F1F910F9108952F923F924F9274
:102500005F926F927F928F929F92AF92BF92CF9283
:10251000DF92EF92FF920F931F93DF93CF9300D040
:102520000F92CDB7DEB75C014B012A0119011C8364
:102530000B83FA82E98248E853E160E070E00E9490
:10254000490DC5010A960E94C20F8CEF99E0F50172
:10255000918380834696938782871686158680E0CE
:1025600090E0A0E0B0E0838B948BA58BB68B8AE1E2
:1025700090E00E942A3F782E692EB401A2019101B9
:10258000E8E8EE2EE3E1FE2E012D112D0E949622A9
:10259000F501778A608E8AE190E00E942A3F782ECA
:1025A000692E0894811C911CB401A2012B813C81ED
:1025B0000E949622F501718E628E8AE190E00E945F
:1025C0002A3F782E692E0894811C911CB401A20127
:1025D00029813A810E949622F501738E648E8AE1E8
:1025E00090E00E942A3F782E692E0894811C911C4D
:1025F000B401A20196010E949622F501758E668EA5
:102600008FEF84870F900F900F900F90CF91DF91F5
:102610001F910F91FF90EF90DF90CF90BF90AF9000
:102620009F908F907F906F905F904F903F902F90F2
:1026300008954F925F926F927F928F929F92AF9286
:10264000BF92CF92DF92EF92FF920F931F93CF939F
:10265000DF932C0128E530E0420E531EF201808109
:10266000918128EA3FEF420E531E892B09F047C0A3
:102670009CE3692E712CE301EC9781E8C82E8AE077
:10268000D82ECC0EDD1EF601E080F1800281138190
:10269000FE01E354F54FB080A18092808380C80191
:1026A000B7012B2D3A2D492D582D0E948B47181616
:1026B000D4F5C801B701F20125A136A147A150A563
:1026C0000E94D7457B018C0120E030E040E050E0E3
:1026D0000E943C4618160CF04DC0F601E082F182D3
:1026E000028313836496C615D70539F624E030E0DB
:1026F000620E731E30E56316710409F0BCCF81E0F1
:10270000F201808BDF91CF911F910F91FF90EF909D
:10271000DF90CF90BF90AF909F908F907F906F9001
:102720005F904F900895C801B7012B2D3A2D492D88
:10273000582D0E943C468823ACF6C801B701F2012F
:1027400025A136A147A150A50E94D8457B018C0147
:102750006B2D7A2D892D982DA80197010E943C465A
:1027600088230CF0BACF8B2D9A2DA92DB82D7C0182
:102770008D01B3CF0F2EF0E0EF2EF0E0FF2EF0E052
:102780000F2FF0E01F2FF02DA8CF4F925F927F9276
:102790008F929F92AF92BF92CF92DF92EF92FF9271
:1027A0000F931F93CF93DF932C01762E59016A016B
:1027B000EE24FF24E701CC0FDD1FCE0DDF1DCE5828
:1027C000D54F87012FE0822E912C8E0C9F1C7720F5
:1027D00081F18DEB9AE0F801EE0FFF1FEE0FFF1F66
:1027E000E80FF91FA082B182C282D38281589A4039
:1027F00019F10B5F1F4F21968016910641F708943F
:10280000E11CF11C85E0E816F104A1F681E0F2017B
:10281000808BDF91CF911F910F91FF90EF90DF9010
:10282000CF90BF90AF909F908F907F905F904F9090
:10283000089581E89AE0CFCFC601B5010E94AD4668
:102840006883D7CFFC016115710589F06A30710585
:10285000A9F06B30710511F16530710541F16731F7
:10286000710599F060E070E080E89FEB0895678162
:1028700070E080E090E00E94D9460895EC5AFF4F46
:1028800060817181828193810895E15BFF4F608156
:102890007181828193810E94DB460895ED5AFF4F3A
:1028A000608170E080E090E00E94D946089561ADBB
:1028B00070E080E090E00E94D94608958CE090E1BD
:1028C00069EA73E00E94084108950F931F93CF9324
:1028D000DF93EC018B011D8E1E8E1F8E18A2C85A2D
:1028E000DF4F79836883C855D0400E94B042698B1E
:1028F0007A8B8B8B9C8B012B09F4188ADF91CF91FB
:102900001F910F9108952F923F924F925F926F9275
:102910007F928F929F92AF92BF92CF92DF92EF926F
:10292000FF920F931F93DF93CF93CDB7DEB7E4975A
:102930000FB6F894DEBF0FBECDBF9AAB89AB4E0188
:102940000894811C911CC4010E94CC220E94B042B8
:102950002B013C01A9A9BAA917968D919C911897B2
:102960008530910509F49DC18630910509F474C143
:10297000049709F4B8C000D00F92A9A9BAA9D396B8
:10298000ED90FD900D911C91D6979F96AD90BD90C6
:10299000CD90DC90D2978CE59FE8A2E8BFE3EDB73D
:1029A000FEB781839283A383B483C40169EF7AE085
:1029B00045E050E02FE030E0812CE1E09E2E0E94C7
:1029C000B7310F900F900F900F900E94B042DC0132
:1029D000CB0184199509A609B7098DA79EA7AFA7B2
:1029E000B8AB66247724442455248CE090E16DEB49
:1029F00073E00E94E9408CE090E14DA55EA56FA5D3
:102A000078A92AE030E00E942D408CE090E16EEC45
:102A100073E00E94E9408CE090E1B3014AE050E0AD
:102A20000E94CA408CE090E16FED73E00E94E940A3
:102A30008CE090E1B2014AE050E00E94CA408CE094
:102A400090E162EF73E00E94084104E1E02EF12C76
:102A5000870104511040F801E750F54F4081518142
:102A6000628173818CE090E122E030E00E9452426A
:102A70008CE090E163E074E00E94E9400C5F1F4F3E
:102A8000E016F10641F78CE090E10E94593FE4E145
:102A9000F0E0EE0EFF1EF0E4EF16F1E0FF06C1F6E7
:102AA0000E94B042A9A9BAA955966D937D938D93C2
:102AB0009C935897E4960FB6F894DEBF0FBECDBF37
:102AC000CF91DF911F910F91FF90EF90DF90CF900A
:102AD000BF90AF909F908F907F906F905F904F903E
:102AE0003F902F90089514E0212E312C8EEA97E428
:102AF000A1E8BFE3E8ECF0E0FCABEBAB00D00F9259
:102B0000E9A9FAA9E3A8F4A805A916A9A7A4B0A859
:102B1000C1A8D2A8EDB7FEB781839283A383B48303
:102B2000C40169EF7AE045E050E02FE030E08BA887
:102B30009CA80E94B7310F900F900F900F900E94A9
:102B4000B042DC01CB0184199509A609B7098DA70C
:102B50009EA7AFA7B8AB442455246624772484E10C
:102B6000882E912C2CEEC22E2FEFD22EC80CD91C01
:102B700099EFA92E9AE0B92EAC0CBD1CD501ED90B1
:102B8000FD900D911C91C801B70120E030E04EE7A7
:102B900053E40E943C4688230CF5C801B70120E0AD
:102BA00030E040E85FE30E94D8457B018C0120E0E3
:102BB00030E04FE753E40E948B47181654F40F2E71
:102BC000F0E0EF2EF0E0FF2EFFE70F2FF3E41F2FD2
:102BD000F02DF501E082F18202831383C801B70171
:102BE00020E030E04BE653E40E948B478823A4F0BA
:102BF0000894611C711C24E630E0629EC001639E53
:102C0000900D729E900D11246BE470E00E9421489B
:102C10002B0162157305B4F484E090E0C80ED91E50
:102C20008C149D0409F0A4CF80E09CE2891691E009
:102C3000990671F0A4E1B0E08A0E9B1E882309F486
:102C400091CFD3CE81E09CE2891691E0990691F76D
:102C5000882309F482CFC9CE00D00F92A9A9BAA9BE
:102C6000D396ED90FD900D911C91D6979F96AD90C7
:102C7000BD90CD90DC90D2978EEA97E4A1E8BFE3B7
:102C8000EDB7FEB781839283A383B483C40169EF58
:102C90007AE045E050E02FE030E0B0E88B2E912C58
:102CA0008ECEF8E22F2E312C86E696E6A6E8BFE31C
:102CB000E0E0F1E0FCABEBAB21CFEF92FF920F93A2
:102CC0001F93CF93DF938C01EC01C25ADF4F4881F1
:102CD0004E3008F05AC084E1489FC00111244CE2F4
:102CE00051E0481B590B4D3351050CF056C0FA0109
:102CF0002DEB3AE0A9EFEA2EAAE0FA2EAC014E0D38
:102D00005F1DC901BA01AF010E9421048881482FCB
:102D100050E040955095415F5F4F433051051CF5A1
:102D2000CA01880F991F880F991F9C01220F331F1A
:102D3000220F331F280F391F2354354F83E090E0B3
:102D4000841B950B880F991F880F991FFC01EE0FAC
:102D5000FF1FEE0FFF1FE80FF91FC901B701AF01F9
:102D60000E94210488818F5F8883C80160E070E041
:102D700020E030E040E050E00E946514DF91CF9108
:102D80001F910F91FF90EF9008950E948314188275
:102D900080E090E0ECE3F0E0ABCFECE3F0E0A8CF34
:102DA0004F925F926F927F928F929F92AF92BF925B
:102DB000CF92DF92EF92FF920F931F93CF93DF9307
:102DC0002C01CC24DD24AA24BB2418E5612E712C0F
:102DD000680E791EC601880F991F8C0D9D1D8C01F0
:102DE0000E58154F7501C0E0D0E04C01F701EF57C8
:102DF000F54F60817181828193810E94AD46AB0164
:102E0000F30180819181892B31F4E42FF0E0EE5AB7
:102E1000F74F408150E0F401EC0FFD1FEE5AF64FE2
:102E20006081F8018081481739F04083623368F58A
:102E3000862FBA010E94B143219684E190E0E80E0A
:102E4000F91E0F5F1F4FC330D10581F60894C11CD6
:102E5000D11CE4E0F0E0AE0EBF1EF5E0CF16D104C9
:102E600009F0B8CFF201108ADF91CF911F910F9135
:102E7000FF90EF90DF90CF90BF90AF909F908F909A
:102E80007F906F905F904F9008956253F20183811D
:102E900094810E94A033D0CF0F931F938C0180E2C6
:102EA0009AE0F80191838083C801815A9F4F0E9464
:102EB0007F35C801CC960E948E0DC8010E94C80FB4
:102EC0001F910F9108950F931F938C0180E29AE058
:102ED000F80191838083C801815A9F4F0E947F35FA
:102EE000C801CC960E948E0DC8010E94C80FC8016F
:102EF0000E94273F1F910F910895CF92DF92EF928A
:102F0000FF920F931F93CF93DF938C016A01790196
:102F10000E94C20F80E29AE0D8018D939C93C80171
:102F2000CC960E947C0DC801815A9F4F0E94993512
:102F3000E80119AE21E02E872D87FE82ED82809177
:102F4000610990916209035B1F4FF80191838083AF
:102F50000D54104082E0D801D7968C93F801E15BC4
:102F6000FF4F8AE999E9A9E9BEE3E8018FA798AB89
:102F7000A9ABBAAB80E090E0A0E0BFE38BAB9CAB29
:102F8000ADABBEAB065A1F4F81E090E0D8018D93E8
:102F90009C930750104088E0E80189938E0180E0FF
:102FA00090E0A0E0B0E088839983AA83BB83065FAA
:102FB0001F4FD8011C920E5510408CEA9DE0A0E0F6
:102FC000B0E080839183A283B383E8011BA61CA693
:102FD0001DA61EA62A83DC82CB82188A045A1F4FA4
:102FE000F80111821082DF91CF911F910F91FF9014
:102FF000EF90DF90CF9008956F927F928F929F9283
:10300000AF92BF92CF92DF92EF92FF920F931F93F6
:10301000CF93DF93EC016A017B0140E050E060E078
:1030200070E08C010D5A1F4FB4E5AB2EB12CA80EE9
:10303000B91EF801908120E030E0F901EE0FFF1F8A
:10304000E20FF31FE40FF51FEE5AF64F8081981739
:1030500009F444C02F5F3F4F2530310571F74F5FB2
:103060005F4F6B5F7F4F4330510519F7C701B601C2
:1030700029E130E040E050E00E94F6477B018C01FE
:103080006BA77CA78DA79EA70E94DB469B01AC0186
:1030900060E070E08FE793E40E9440466DA37EA35A
:1030A0008FA398A7E9A2FAA20BA31CA3CE0160E00C
:1030B00070E020E030E040E050E00E946514DF91D5
:1030C000CF911F910F91FF90EF90DF90CF90BF9025
:1030D000AF909F908F907F906F900895FB01E20FCB
:1030E000F11DEE0FFF1FEE0FFF1FE354F54FD5014B
:1030F0006D907D908D909C9060827182828293828F
:103100004F5F5F4F6B5F7F4F4330510509F091CFA9
:10311000ADCFCF92DF92FF920F931F93DF93CF93A8
:1031200000D0CDB7DEB76C018C01015A1F4FC8012A
:103130000E94EC33F82EC8010E94F033482F8E0114
:103140000F5F1F4FC8016F2D0E94760DC601CC96F0
:10315000B8010E94420E892B29F4F60187819085DF
:10316000892B71F4C8010E947B0D0F900F900F9076
:10317000CF91DF911F910F91FF90DF90CF90089535
:1031800081AD8F5F81AF8CE090E163E374E00E94DA
:103190000841F6011086178212861186C60161E089
:1031A00020E030E040E050E00E94C513C60160E03E
:1031B00020E030E040E050E00E94C51381E0F601DD
:1031C000808BC6010E94D016C6014AE050E060E044
:1031D00070E00E94FC17C6CFEF92FF920F931F93EF
:1031E000CF93DF93EC01FC01E15BFF4F4083518300
:1031F00062837383483E83E0580780E0680780E07D
:103200007807ECF588EE93E0A0E0B0E0808391834E
:10321000A283B383608171818281938128EE33E040
:1032200040E050E00E945648CA01B90129E130E06F
:1032300040E050E00E94F6477B018C016BA77CA721
:103240008DA79EA70E94DB469B01AC0160E070E069
:103250008FE793E40E9440466DA37EA38FA398A7B7
:10326000E9A2FAA20BA31CA31D8E1E8E1F8E18A20C
:10327000DF91CF911F910F91FF90EF9008954156EC
:103280005A4E6040704034F280E69AEEA0E0B0E022
:1032900080839183A283B383BDCFCF93DF93EC016F
:1032A0008A818823A1F5CE0161E020E030E040E092
:1032B00050E00E94C5138BAD90E02AADFC01EE0FEB
:1032C000FF1FEE0FFF1FE80FF91FE20FF11DEE0FBA
:1032D000FF1FEE0FFF1FE354F54F80E090E0AFE7D4
:1032E000B3E480839183A283B3838AAD8F5F8AAF77
:1032F000853009F443C0CE0160E070E020E030E0AA
:1033000040E050E00E946514DF91CF9108951BAE1C
:103310001AAECE0161E020E030E040E050E00E94D3
:10332000C51380E090E0A6E1B3E48093C50A9093D2
:10333000C60AA093C70AB093C80A22E330E040E06F
:1033400050E02BA73CA74DA75EA783E393E3A3EA36
:10335000B0E48DA39EA3AFA3B8A729A33AA34BA320
:103360005CA3CE0160E070E020E030E040E050E09F
:103370000E9465141A82DF91CF9108951AAE8BAD29
:103380008F5F8BAF833009F0B6CF1BAEB4CF0F93F6
:103390001F93CF93DF938C01EB01FC017087678350
:1033A0008CE090E16EE374E00E94E940C330D10507
:1033B00009F4EEC0C430D105CCF0C530D10509F414
:1033C00072C0C530D1050CF444C0C630D10509F433
:1033D00078C02797C9F58CE090E164E974E00E9419
:1033E000E940DF91CF911F910F910895C130D10530
:1033F00009F475C0C230D105D4F1C80161E020E004
:1034000030E040E050E00E94C513035B1F4FF8011D
:10341000408151810D541040662757FD6095762FED
:10342000C8010E94FC178CE090E16EE474E00E94F9
:10343000E940F80143A554A565A576A58CE090E187
:103440002AE030E00E94B640DF91CF911F910F91AA
:1034500008958CE090E16DE874E00E940841C80195
:103460000E948314DF91CF911F910F910895CD2B6E
:1034700059F7C80161E020E030E040E050E00E94F0
:10348000C513C8014AE050E060E070E00E94FC17FC
:103490008CE090E167E474E00E940841DF91CF91F5
:1034A0001F910F9108958CE090E161E774E00E9414
:1034B0000841C8010E948314DF91CF911F910F91A1
:1034C00008958CE090E16FE774E00E940841C80124
:1034D0000E948314DF91CF911F910F910895C8012D
:1034E00061E020E030E04FE753E40E94C513035B46
:1034F0001F4FF801608171810D541040882777FDBE
:103500008095982F29E130E040E050E00E94F64796
:10351000F80163A774A785A796A78CE090E167E6FA
:1035200074E00E94E940F80143A554A565A576A57D
:103530008CE090E12AE030E00E94B640F80163A5FB
:1035400074A585A596A50E94DB469B01AC0160E0B1
:1035500070E08FE793E40E944046F80165A376A3EC
:1035600087A390A783A594A5A5A5B6A581A392A39B
:10357000A3A3B4A3C80160E070E020E030E040E025
:1035800050E00E946514DF91CF911F910F91089533
:103590008CE090E167E574E00E940841C80161E0B9
:1035A00020E030E04FE753E40E94C5132AEF30E0FB
:1035B00040E050E0F80123A734A745A756A78CE5C3
:1035C0009FE8A2E8BFE385A396A3A7A3B0A721A382
:1035D00032A343A354A3C80160E070E020E030E0D0
:1035E00040E050E00E946514DF91CF911F910F9150
:1035F0000895AF92BF92CF92DF92EF92FF920F9316
:103600001F93CF93DF935C01EB0169017A0166316F
:10361000710509F40CC16731710564F169327105F6
:1036200009F493C16A3271050CF461C06D32710501
:1036300009F47AC16436710509F455C16B3271051C
:1036400009F4D7C08CE090E169E076E00E94E9409F
:103650008CE090E1BE014AE050E00E94CA40DF9158
:10366000CF911F910F91FF90EF90DF90CF90BF907F
:10367000AF9008956A30710509F48FC16B30710500
:103680000CF04DC06130710509F404C1653071055D
:1036900009F4FCC061157105A9F6EAE5F0E0AE0E8B
:1036A000BF1ED5018D919C91E6EAFFEFAE0EBF1EC5
:1036B000019779F4D50117968D919C9118970097F1
:1036C00009F4F2C18130910509F4E9C1029709F4C6
:1036D000F8C1C701B6010E94AD467B018C01C5014E
:1036E000B7010E94C719F501F286E186B8CF6831AB
:1036F000710509F43CC168317105A4F168327105A6
:1037000009F0A0CFCA01B9010E94AD467B018C012E
:10371000F50166AF8CE090E16BEB75E07EC0643143
:10372000710509F496C065317105BCF56B30710502
:1037300009F088CF8C010D5A1F4FCA01B9010E94B0
:10374000AD46D8016C938CE090E16EEF74E00E947E
:10375000E9408CE090E1F80160814AE050E00E948D
:1037600053407DCF2AE530E0A20EB31ED5018D91E6
:103770009C91E6EAFFEFAE0EBF1E019709F488C1E7
:10378000F50187819085039708F068C18CE090E18E
:103790006AE275E00E94084162CFCA01B90120E0E7
:1037A00030E040E050E00E948B4718160CF04AC011
:1037B000C701B60120E030E040E85FE30E943C46EC
:1037C00088230CF03FC08CE090E16EE475E00E942D
:1037D000E9408CE090E1B701A60122E030E00E94D0
:1037E0005542D5019F96CD92DD92ED92FC92D297F3
:1037F00036CFCA01B9010E94AD467B018C01E5E4D8
:10380000F0E0AE0EBF1ED5016C93C50109970E9472
:103810002B0E8CE090E165EF75E00E94E9408CE0B2
:1038200090E16E2D4AE050E00E94534018CFCA014B
:10383000B90120E030E040E050E00E948B471816CC
:103840000CF4DDC08CE090E16FE575E00E9408416A
:1038500006CF2AE530E0A20EB31ED5018D919C91D2
:10386000E6EAFFEFAE0EBF1E019761F4D5011F9689
:103870008C91882339F48CE090E16DE075E00E9432
:103880000841EDCEC5010E948314E9CEDC01D99632
:103890001C92E5CECA01B9010E94AD46D5011C9625
:1038A0007C936E931B978CE090E164EC74E00E9433
:1038B000E940F501638574858CE090E14AE050E0D1
:1038C0000E94CA40D50117968D919C911897019737
:1038D00009F0C5CE1B968D919C911C971A969C93CE
:1038E0008E931997BCCECA01B9010E94AD466623DA
:1038F00009F4A4C08CE090E164E975E00E940841FD
:10390000F50112861186C50160E070E00E94C719BA
:1039100081E0D5011F968C93EAE5F0E0AE0EBF1E64
:10392000D5011D921C929BCECA01B9010E94AD46E1
:103930007B018C01E4E4F0E0AE0EBF1ED5016C9378
:103940008CE090E163EE75E068CFCA01B9010E9496
:10395000AD467B018C01D501DF966C93C501CC96F9
:103960000E942B0E8CE090E16EEC75E056CFCA0100
:10397000B9010E94AD46D501D7966C938CE090E1D9
:1039800060E875E00E94E9408CE090E1F50167A9EC
:103990004AE050E00E94534062CEEC01CC5ADF4F27
:1039A000688179818A819B810E943C468823B1F09D
:1039B000C882D982EA82FB82F50187819085892BB2
:1039C00069F48CE090E16CED74E00E940841C5015F
:1039D0004AE050E060E070E00E94FC178CE090E16B
:1039E00063EF74E00E94E940488159816A817B81DC
:1039F0008CE090E122E030E00E94554230CEC701D9
:103A0000B60120E030E040E85FE30E943C468823B6
:103A10000CF018CF8CE090E167E675E00E94E94079
:103A20008CE090E1B701A60122E030E00E9455420F
:103A3000F501C3AAD4AAE5AAF6AA11CE8CE090E1BA
:103A400066EA75E00E940841EAE5F0E0AE0EBF1EAE
:103A500081E090E0D5018D939C9301CE8CE090E1C4
:103A60006CE375E00E94E940C701B6010E94A846D8
:103A70007B018C018CE090E1A701B8012AE030E0E5
:103A80000E94B640C501A701B8010E94EC18E7CD1D
:103A9000D5011F968C91882309F072CEECCE1F962B
:103AA0008C91882309F415CED501ED91FC91048009
:103AB000F581E02DC50161E070E0A701960119953F
:103AC000CECD8CE090E169E974E00E940841C7CD59
:103AD0006F927F928F929F92AF92BF92CF92DF921E
:103AE000EF92FF920F931F93DF93CF9300D0CDB748
:103AF000DEB77C010E94B0425B016C012CE530E036
:103B0000E20EF31EF7018081918124EA3FEFE20E7D
:103B1000F31E0297D1F0FFE5CF2ED12CCE0CDF1C87
:103B2000C6010E9413350F900F900F90CF91DF9137
:103B30001F910F91FF90EF90DF90CF90BF90AF90CB
:103B40009F908F907F906F90089548E550E0E40E2D
:103B5000F51EF7018081918128EA3FEFE20EF31E06
:103B6000892B09F43DC0F701878190858430910548
:103B700009F46FC08630910509F46BC0059709F40C
:103B800068C0F701818D928DA38DB48DA81AB90AF2
:103B9000CA0ADB0AF8E8AF16F3E1BF06F0E0CF0689
:103BA000F0E0DF0608F07EC06FE5C62ED12CCE0C0B
:103BB000DF1CF7018089882309F4B2CFA1E8BAE0BD
:103BC000EDEBFAE08CE301900D928150E1F7F70103
:103BD0008089882309F4A4CFC7010E94D016A0CF02
:103BE000F70181899289A389B489A6019501281BCF
:103BF000390B4A0B5B0B283231054105510518F191
:103C0000F701A18AB28AC38AD48A858D968DA78D41
:103C1000B0A10196A11DB11D858F968FA78FB0A36E
:103C200021A132A143A154A1281739074A075B07F4
:103C30000CF0E8C0C70161E070E020E030E040E057
:103C400050E00E946514EFE5CE2ED12CCE0CDF1C87
:103C5000BECFF70185899689A789B08DA601950108
:103C6000281B390B4A0B5B0B6FE470E0E60EF71E66
:103C7000F70180819181A281B38161EB7FEFE60E34
:103C8000F71E281739074A075B0708F47ACFC701E0
:103C90000E945D160E94B042F701658B768B878B80
:103CA000908F6FCFF701278130852730310549F09C
:103CB000818592852817390709F0ADC0C7010E9498
:103CC00089185FE5C52ED12CCE0CDF1CC6010E94E1
:103CD000F433F70120AD30E082179307C9F08CE090
:103CE00090E169E376E00E94E940C6010E94F43366
:103CF000BC018CE090E14AE050E00E94CA40F7012C
:103D0000158681E08787C6010E94F433F70180AFF2
:103D1000C6010E94EC33182FC6010E94F033482FD1
:103D20004E010894811C911CC401612F0E94760DE4
:103D30008701045C1F4FC801B4010E94420E5C0160
:103D4000F70187819085009709F045C0F701178634
:103D500080916109909162094DE4642E712C6E0C82
:103D60007F1CF30191838083F7018685882309F402
:103D70008CC0F7018585882309F46CC0F2E0AF168A
:103D8000B10409F4BEC023E0A216B10409F48CC04A
:103D900031E0A316B10459F58CE090E165EA76E0D4
:103DA0000E94084181E0F70187878CE090E160EB99
:103DB00076E00E9408418EE190E0F30191838083D8
:103DC000C70161E070E00E94C719F70183859485FF
:103DD000928781870CC00797C9F1F4E0AF16B10450
:103DE00009F49CC0F5E0AF16B10409F4B8C00E9414
:103DF000B042F701618F728F838F948FC4010E944C
:103E00007B0DD7CEC7010E9419137FE5C72ED12C99
:103E1000CE0CDF1CDCCE8CE090E16AE176E00E9403
:103E2000E940F701618572858CE090E14AE050E05D
:103E30000E94CA40F70161857285C7010E94C719B7
:103E4000F701818592859087878338CFC7010E94CB
:103E50004D19CDCFC6010E94EC33F70126AD30E0FD
:103E6000215030408217930709F088CF8CE090E111
:103E700061E676E00E940841F701858196810E9403
:103E80000B0981E0F701858779CF8CE090E168E448
:103E900076E00E940841F701858196810E94FC0826
:103EA00081E0F701868765CF8CE090E163E976E0F9
:103EB0000E94084181E0F7018787C6010E945834BB
:103EC00080916109909162096CE370E00E94214841
:103ED0005B01C8010E94050F90E0A816B9060CF41A
:103EE0006ACFA81AB90A8CE390E09C01A29EC00197
:103EF000A39E900DB29E900D1124F30191838083B7
:103F00005FCF8CE090E164E876E00E94084181E0B8
:103F1000F7018787C6010E94583452CF8CE090E1A8
:103F200062EC76E00E940841F701178616868091C0
:103F30006109909162092DE430E0E20EF31EF70171
:103F40009183808323EB3FEFE20EF31EC70162E013
:103F500070E00E94C719F7011286118648CF8CE0E5
:103F600090E160ED76E00E940841F7011786168621
:103F700080916109909162096CE370E00E94214890
:103F80005B01C8010E94050F90E0A816B90674F401
:103F90002DE430E0E20EF31E8EE190E0F701918314
:103FA000808323EB3FEFE20EF31ED0CF4DE450E0D1
:103FB000E40EF51EA81AB90A8CE390E0BC01A69E97
:103FC000C001A79E900DB69E900D1124F70191831C
:103FD000808323EB3FEFE20EF31EB8CF8F929F92C8
:103FE000AF92BF92CF92DF92EF92FF920F931F9307
:103FF000DF93CF9300D000D0CDB7DEB74C0100E007
:1040000010E0AA24BB24F501EE0FFF1FEA0DFB1DF3
:10401000E00FF11FEE5AF64F808161E00E9490445C
:104020000894A11CB11C85E0A816B10461F70F5FCC
:104030001F4F0330110529F7C40160E020E030E094
:1040400040E050E00E94C513C40161E020E030E090
:1040500040E050E00E94C513C4010E94D016AFE5B5
:10406000CA2ED12CC80CD91CC6010E9444358CE044
:1040700090E161EE76E00E9408417E010894E11C27
:10408000F11CC7016CE04EE10E94760D8E010C5FC1
:104090001F4FC80167E14EE10E94760DF401E35B1A
:1040A000FF4F808191816CE370E00E942148262FB0
:1040B000C401CC96B701A8010E94540F80E00E9471
:1040C0007C430E94CE45C6010E94F433F40180AFC8
:1040D0008CE090E167EF76E00E94E9408CE090E1AF
:1040E000F40160AD4AE050E00E945340C40161E039
:1040F00070E020E030E040E050E00E946514F40100
:104100001086178212861186B486A386C40160E0E9
:1041100070E00E94C719C40148E853E160E070E014
:104120000E94EC180E94B042F401618B728B838B69
:10413000948B0E94B042F401618F728F838F948FB1
:10414000158A168A178A108E8CE590E0880E991EC3
:1041500082E090E0F401918380838CE090E16DEF48
:1041600076E00E940841C8010E947B0DC7010E94B1
:104170007B0D26960FB6F894DEBF0FBECDBFCF9154
:10418000DF911F910F91FF90EF90DF90CF90BF9044
:10419000AF909F908F900895CF92DF92EF92FF9211
:1041A0000F931F938130910561F0892B19F46F5F94
:1041B0007F4FB1F11F910F91FF90EF90DF90CF9063
:1041C00008956F5F7F4FB1F785E29CE060E20E9447
:1041D000163783E39CE00E944A3389E39CE060E069
:1041E00070E045E25CE023E639E00BE619E0F3E736
:1041F000EF2EF9E0FF2EEBE7CE2EE9E0DE2E0E9457
:104200007D1288E59CE00E94060D8EE99CE065E247
:104210007CE043E35CE028E53CE00E947D17CACFE8
:104220008EE99CE00E944C1788E59CE00E94D50C2A
:1042300089E39CE00E944C1283E39CE00E9450338F
:104240001F910F91FF90EF90DF90CF90089580E045
:1042500090E06FEF7FEF0E94CC20089581E090E026
:104260006FEF7FEF0E94CC20089588E59CE00E94CC
:10427000940A89E39CE00E94AF088EE99CE00E94CA
:10428000681D0895EF92FF920F931F9382E79DE0C0
:104290000E9426388CE090E140E855E260E070E052
:1042A0000E94A83C83E39CE00E94B03309E31CE039
:1042B000C8010E94AC11AEE9EA2EACE0FA2EC701AB
:1042C0000E94EE1FF092670CE092660C065F1F4F93
:1042D0001093690C0093680C88E59CE00E94A40C84
:1042E0000E94B0426093160D7093170D8093180DC5
:1042F0009093190D1F910F91FF90EF900895FC017D
:104300002285338544855585B901CA0108950F93E7
:104310001F938C01FC01828993890E94C936F801A0
:1043200060897189828993890E94A836F8018289FF
:10433000938964E440E00E9469361F910F910895CB
:104340006F927F928F929F92AF92BF92CF92DF92A5
:10435000EF92FF920F931F93CF93DF938C016B012A
:10436000FC01828993890E94C936F80160897189AC
:10437000828993890E94A836F801828993896EEB1D
:1043800040E00E946936C0E0D0E0F801828993895C
:104390000E941136F601EC0FFD1F80832196C93073
:1043A000D10599F7F6018081282F30E0818181388D
:1043B00028F0232B09F046C02EEF3FEFF601E780EF
:1043C000FF2435952795B901882777FD8095982F8B
:1043D0000E94DB4620E030E040E85EE30E94D745E3
:1043E0003B014C01F6018681B701681B71098827E2
:1043F00077FD8095982F0E94DB465B016C010027BA
:10440000F7FC0095102FC801B7010E94DB469B0105
:10441000AC01C601B5010E9440469B01AC01C4013C
:10442000B3010E94D845DF91CF911F910F91FF906A
:10443000EF90DF90CF90BF90AF909F908F907F9044
:104440006F9008952FEF3FEFB9CFEF92FF920F9348
:104450001F93DF93CF93CDB7DEB72C970FB6F894A9
:10446000DEBF0FBECDBF7C01FC018489882301F52E
:1044700081E0F701848BC7018E010F5F1F4FB801E8
:104480000E94A021C701B8010E94A021F701628704
:104490007387848795872C960FB6F894DEBF0FBE7E
:1044A000CDBFCF91DF911F910F91FF90EF900895B5
:1044B000C7010E948721F701148AEDCF0F931F9344
:1044C0008C010E94DF08D80150968D919C915197E4
:1044D00067E00E94C435D8015096ED91FC91519748
:1044E0009781891731F08CE090E169E077E00E94D4
:1044F00008411F910F910895FC018EE29AE091838B
:104500008083CF010E942F0D08950F931F938C017C
:104510008EE29AE0F80191838083C8010E942F0DFA
:10452000C8010E94273F1F910F9108956F927F92BB
:104530008F929F92AF92BF92CF92DF92EF92FF92B3
:104540000F931F936C014B013A015901B801A70168
:104550000E94490D8EE29AE0F6019183808397864E
:104560008686B18AA08A738A628A80E090E0A0E0A1
:10457000B0E082879387A487B58781E0848B1F9101
:104580000F91FF90EF90DF90CF90BF90AF909F90F2
:104590008F907F906F9008950F931F93CF93DF9329
:1045A000FC01138E128E118E108E178A168A8C01C2
:1045B000C0E0D0E060E070E080E090E02FEF30E01D
:1045C00040E050E00E94B045F801758F648F21965D
:1045D0000E5F1F4FC830D10569F7DF91CF911F9152
:1045E0000F9108952F923F924F925F926F927F9218
:1045F0008F929F92AF92BF92CF92DF92EF92FF92F3
:104600000F931F93DF93CF93CDB7DEB7C259D0403E
:104610000FB6F894DEBF0FBECDBFE3969FAF8EAF4F
:10462000E3972A013B01A7960CAF1DAF2EAF3FAF1A
:10463000A797AB96CCAEDDAEEEAEFFAEAB97CB019F
:10464000BA01A90198010E94D845A70196010E94CC
:10465000D8452BEA3AEA4AEA5EE30E948F479B017B
:10466000AC01E396AEADBFADE39752966D937D93EB
:104670008D939C935597C301B2010E94D8457B014D
:104680008C0120E030E040E050E00E948B4718169B
:1046900014F00C948030C801B7010E94A846E3963C
:1046A000EEADFFADE39771836083A7966CAD7DADF2
:1046B0008EAD9FADA79722893389448955890E9481
:1046C000D8457B018C0120E030E040E050E00E94C2
:1046D0008B47181614F00C947830C801B7010E946B
:1046E000A846E396AEADBFADE39713967C936E9369
:1046F0001297AB966CAD7DAD8EAD9FADAB975296DC
:104700002D913D914D915C9155970E94D8457B012B
:104710008C0120E030E040E050E00E948B4718160A
:1047200014F00C946E30C801B7010E94A8464B01EA
:10473000E396EEADFFADE3979582848222813381CB
:10474000AF963FAF2EAFAF9740815181AD965FAF2F
:104750004EAFAD97B901640F751F680D791D88279D
:1047600077FD8095982F0E94DB462BEA3AEA4AE2D1
:104770005EE30E948F477B018C01E396AEADBFAD37
:10478000E39752966D937D938D939C935597AD9639
:10479000EEADFFADAD97BF01882777FD8095982FCF
:1047A0000E94DB469B01AC01C301B2010E94D745C8
:1047B0009B01AC01C801B7010E94D8455B016C01A7
:1047C000E396AEADBFADE39716966D937D938D9353
:1047D0009C931997AF96EEADFFADAF97BF018827B9
:1047E00077FD8095982F0E94DB469B01AC01A79630
:1047F0006CAD7DAD8EAD9FADA7970E94D745A8014A
:1048000097010E94D8452B013C01E396AEADBFADA8
:10481000E3971A966D937D938D939C931D97B401A6
:10482000882777FD8095982F0E94DB469B01AC017D
:10483000AB966CAD7DAD8EAD9FADAB970E94D7456D
:10484000A80197010E94D8457B018C01E396EEAD4B
:10485000FFADE39766877787808B918B138E128EDF
:10486000118E108E178A168AC601B501A80197010C
:104870000E948B47882314F40C9411308824C601BD
:10488000B501A30192010E948B47882314F088246C
:10489000839481E08826282D30E0A3963FAF2EAF89
:1048A000A39743E050E0421B530B5A8B498BC60140
:1048B000B501A80197010E943C46882314F40C948A
:1048C0003930C801B701A30192010E948B47181625
:1048D00014F40C94253082E090E0A1969FAF8EAF47
:1048E000A197E396EEADFFADE397A28CB38CC08C9D
:1048F000D18CB5016C0D7D1D882777FD8095982F93
:104900000E94DB462BEA3AEA4AE25EE30E948F47C6
:104910007B018C01E396AEADBFADE39752966D93EC
:104920007D938D939C93559756968D909C90579719
:10493000B401882777FD8095982F0E94DB469B0164
:10494000AC01E396EEADFFADE3976681778180859C
:1049500091850E94D7459B01AC01C801B7010E9417
:10496000D84563966CAF7DAF8EAF9FAF6397B601AE
:10497000882777FD8095982F0E94DB469B01AC012C
:10498000E396AEADBFADE3971A966D917D918D9193
:104990009C911D970E94D7459B01AC01C801B701AE
:1049A0000E94D8456D877E878F87988BB5018827B1
:1049B00077FD8095982F0E94DB469B01AC01E39622
:1049C000EEADFFADE39766857785808991890E947A
:1049D000D7459B01AC01C801B7010E94D8452B0106
:1049E0003C0163966CAD7DAD8EAD9FAD63979B0131
:1049F000AC010E948F479B01AC016AE979E989E12A
:104A00009FE30E94D7457B018C016D857E858F8554
:104A100098899B01AC010E948F479B01AC01C801A2
:104A2000B7010E94D7457B018C01C301B201A301EC
:104A300092010E948F479B01AC01C801B7010E94FF
:104A4000D7452F966CAF7DAF8EAF9FAF2F97AD96AA
:104A50002EAD3FADAD97820E931EAF964EAD5FADBE
:104A6000AF97C40ED51EE396AEADBFADE3971496D7
:104A70000D90BC91A02DE196BFAFAEAFE197AA0E0D
:104A8000BB1EF401E170F070EE0FFF1FEE0FFF1F71
:104A9000C60181709070880F991FE82BF92BC50112
:104AA00081709070E82BF92B3E96EE0FFF1FE39676
:104AB0002EAD3FADE397E20FF31F408151816B961E
:104AC0005FAF4EAF6B97F601EE0FFF1FE470F07013
:104AD000C50182709070E82BF92BC40195958795DC
:104AE00081709070E82BF92B3E96EE0FFF1FE20FBE
:104AF000F31F8081918169969FAF8EAF6997F50111
:104B0000E470F070C4019695879582709070E82BE0
:104B1000F92BC6019595879595958795817090702D
:104B2000E82BF92B3E96EE0FFF1FE20FF31F0081DB
:104B30001181F401F695E795E470F070C601969541
:104B400087959695879582709070E82BF92BC50113
:104B50009595879595958795959587958170907092
:104B6000E82BF92B3E96EE0FFF1FE20FF31FA081FB
:104B7000B1816796BFAFAEAF6797F601F695E7953F
:104B8000F695E795E470F070C50196958795969532
:104B900087959695879582709070E82BF92BC401C4
:104BA00095958795959587959595879595958795ED
:104BB00081709070E82BF92B3E96EE0FFF1FE20FED
:104BC000F31F2081318165963FAF2EAF6597F501C8
:104BD000F695E795F695E795F695E795E470F0700C
:104BE000C401929582958F7089279F708927827062
:104BF0009070E82BF92BC60195958795959587952B
:104C000095958795959587959595879581709070E1
:104C1000E82BF92B3E96EE0FFF1FE3964EAD5FADEE
:104C2000E397E40FF51F20803180F401F295E295BF
:104C3000EF70EF27FF70EF27E470F070C6019695D4
:104C40008795929582958F7089279F7089278270AA
:104C50009070E82BF92B0A2CAB2C000CAA1CBB087B
:104C6000000CAA1CBB1CC50181709070E82BF92BAD
:104C70003E96EE0FFF1FE40FF51FE080F180CC0C95
:104C8000CD2CCC1CDD0851E0C522DD24CC0CDD1C74
:104C9000CC0CDD1CB594A79481E0A822BB24AA0CFF
:104CA000BB1CCA28DB28880C892C881C990891E039
:104CB00089229924C828D928AEE0B0E0CA0EDB1EAC
:104CC000CC0CDD1CE396EEADFFADE397CE0EDF1E00
:104CD000D601CD90DC90A396EEADFFADA3973B96A9
:104CE000EE0FFF1FE3962EAD3FADE397E20FF31FEC
:104CF000808191810196918380832F966CAD7DADEB
:104D00008EAD9FAD2F9720E030E040E050E00E9454
:104D10003C46882314F40C9488306996AEADBFAD40
:104D200069970A0F1B1F6B96EEADFFAD6B970E0FC9
:104D30001F1F67962EAD3FAD6797020F131F659635
:104D40004EAD5FAD6597040F151F020D131D0E0DBF
:104D50001F1D0C0D1D1D7801F594E794F594E79443
:104D6000F594E794F594E794F594E79451E0E522FF
:104D7000FF246801D594C794D594C794D594C7945B
:104D8000D594C79481E0C822DD2448019594879486
:104D9000959487949594879491E08922992483E04F
:104DA000A82EB12CA022B122A1E0AA16B10411F4C0
:104DB0000C94893192E0A916B10451F1C201B301FA
:104DC00063964CAC5DAC6EAC7FAC63972D853E8535
:104DD0004F85588963962CAF3DAF4EAF5FAF639759
:104DE0009C01AB01E8968FAFE897E9963FAFE99752
:104DF000EA966FAFEA97EB965FAFEB97EB968CADC9
:104E00009DADAEADBFADEB978D879E87AF87B88B5D
:104E1000E814F90411F40C947E31EC14FD0411F43F
:104E20000C94B3308C249D24E814F90469F0639643
:104E30008CAD9DADAEADBFAD6397B05863968CAFF2
:104E40009DAFAEAFBFAF63972F966CAD7DAD8EAD0E
:104E50009FAD2F979B01AC010E948F476B017C0196
:104E6000AB2811F00C946230C301B20163962CADF3
:104E70003DAD4EAD5FAD63970E94D8452B013C011F
:104E8000C701B60120E030E040E051E40E948F47C6
:104E90009B01AC01C701B6010E948F477B018C01C9
:104EA0006D857E858F859889A30192010E94D845E2
:104EB0009B01AC01C801B7010E948F476F966CAF90
:104EC0007DAF8EAF9FAF6F97A989BA89A196EEADDE
:104ED000FFADA197AE1BBF0BBA8BA98BE396AEAD0E
:104EE000BFADE3975896CD90DC90599756968D902C
:104EF0009C905797B601680D791D5A96AD90BC905D
:104F00005B976A0D7B1D882777FD8095982F0E94FF
:104F1000DB462BEA3AEA4AE25EE30E948F477B01D6
:104F20008C01E396EEADFFADE397628B738B848BC0
:104F3000958BB401882777FD8095982F0E94DB46DA
:104F40009B01AC01E396AEADBFADE39716966D91B4
:104F50007D918D919C9119970E94D7459B01AC0141
:104F6000C801B7010E94D8456BAF7CAF8DAF9EAF33
:104F7000B601882777FD8095982F0E94DB469B011C
:104F8000AC01E396EEADFFADE39762857385848552
:104F900095850E94D7459B01AC01C801B7010E94CD
:104FA000D84569877A878B879C87B501882777FDE5
:104FB0008095982F0E94DB469B01AC01E396AEAD35
:104FC000BFADE3971E966D917D918D919C91519708
:104FD0000E94D7459B01AC01C801B7010E94D8458A
:104FE0002B013C016BAD7CAD8DAD9EAD9B01AC0149
:104FF0000E948F479B01AC016AE979E989E19FE34F
:105000000E94D7457B018C0169857A858B859C85BB
:105010009B01AC010E948F479B01AC01C801B70105
:105020000E94D7457B018C01C301B201A30192010B
:105030000E948F479B01AC01C801B7010E94D74570
:105040006FAB78AF89AF9AAFAD96EEADFFADAD97D0
:105050008E0E9F1EAF962EAD3FADAF97C20ED31EE4
:10506000E1964EAD5FADE197A40EB51EF401E1707F
:10507000F070EE0FFF1FEE0FFF1FC60181709070E2
:10508000880F991FE82BF92BC50181709070E82BD0
:10509000F92B3E96EE0FFF1FE3968EAD9FADE39783
:1050A000E80FF91FA081B1812796BFAFAEAF279758
:1050B000F601EE0FFF1FE470F070C5018270907072
:1050C000E82BF92BC4019595879581709070E82B9A
:1050D000F92B3E96EE0FFF1FE3962EAD3FADE39703
:1050E000E20FF31F4081518125965FAF4EAF2597A8
:1050F000F501E470F070C401969587958270907008
:10510000E82BF92BC6019595879595958795817024
:105110009070E82BF92B3E96EE0FFF1FE20FF31F66
:1051200000811181F401F695E795E470F070C601F5
:10513000969587959695879582709070E82BF92BB8
:10514000C5019595879595958795959587958170D6
:105150009070E82BF92B3E96EE0FFF1FE20FF31F26
:105160008081918123969FAF8EAF2397F601F695AC
:10517000E795F695E795E470F070C50196958795EB
:10518000969587959695879582709070E82BF92B68
:10519000C40195958795959587959595879595954E
:1051A000879581709070E82BF92B3E96EE0FFF1FCC
:1051B000E20FF31FA081B1812196BFAFAEAF21975F
:1051C000F501F695E795F695E795F695E795E47080
:1051D000F070C401929582958F7089279F708927FE
:1051E00082709070E82BF92BC6019595879595955F
:1051F00087959595879595958795959587958170D0
:105200009070E82BF92B3E96EE0FFF1FE20FF31F75
:1052100020803180F401F295E295EF70EF27FF7066
:10522000EF27E470F070C601969587959295829568
:105230008F7089279F70892782709070E82BF92BD7
:105240000A2CAB2C000CAA1CBB08000CAA1CBB1C13
:10525000C50181709070E82BF92B3E96EE0FFF1F71
:10526000E20FF31FE080F180CC0CCD2CCC1CDD08CC
:10527000B1E0CB22DD24CC0CDD1CCC0CDD1CB594C4
:10528000A794E1E0AE22BB24AA0CBB1CCA28DB28F1
:10529000880C892C881C9908F1E08F229924C82851
:1052A000D9282EE030E0C20ED31ECC0CDD1CE396D4
:1052B0004EAD5FADE397C40ED51ED601CD90DC9008
:1052C000E989FA893B96EE0FFF1FE40FF51F8081F5
:1052D00091810196918380836FA978AD89AD9AAD54
:1052E00020E030E040E050E00E943C4688230CF48F
:1052F0002FC725964EAD5FAD2597040F151F279636
:105300008EAD9FAD2797080F191F2396AEADBFAD89
:1053100023970A0F1B1F2196EEADFFAD21970E0FAD
:105320001F1F020D131D0E0D1F1D0C0D1D1D7801DD
:10533000F594E794F594E794F594E794F594E7945D
:10534000F594E794F1E0EF22FF246801D594C79427
:10535000D594C794D594C794D594C79421E0C2221C
:10536000DD24480195948794959487949594879427
:1053700031E08322992483E0A82EB12CA022B1220F
:1053800041E0A416B10409F47DC792E0A916B10466
:1053900081F1C201B3014BAC5CAC6DAC7EAC298534
:1053A0003A854B855C852BAF3CAF4DAF5EAF9C0122
:1053B000AB01C158DF4F8883CF57D040C058DF4F73
:1053C0003883C058D040CF57DF4F6883C158D04092
:1053D000CE57DF4F5883C258D040C158DF4F888125
:1053E0009981AA81BB81CF57D04089879A87AB87A3
:1053F000BC87E814F90409F46FC7EC14FD0409F440
:1054000078C78C249D24E814F90449F08BAD9CAD39
:10541000ADADBEADB0588BAF9CAFADAFBEAF6FA959
:1054200078AD89AD9AAD9B01AC010E948F476B01AD
:105430007C01AB2809F03FC6C301B2012BAD3CADE6
:105440004DAD5EAD0E94D8452B013C01C701B601B0
:1054500020E030E040E051E40E948F479B01AC0126
:10546000C701B6010E948F477B018C0169857A854F
:105470008B859C85A30192010E94D8459B01AC01BC
:10548000C801B7010E948F472B966CAF7DAF8EAFDE
:105490009FAF2B97E396AEADBFADE3975896CD90F7
:1054A000DC90599756968D909C905797B601680D51
:1054B000791D5A96AD90BC905B976A0D7B1D88272D
:1054C00077FD8095982F0E94DB462BEA3AEA4AE264
:1054D0005EE30E948F477B018C01E396EEADFFAD4A
:1054E000E397628B738B848B958BB401882777FD50
:1054F0008095982F0E94DB469B01AC01E396AEADF0
:10550000BFADE39716966D917D918D919C91199702
:105510000E94D7459B01AC01C801B7010E94D84544
:105520006FA378A789A79AA7B601882777FD8095EA
:10553000982F0E94DB469B01AC01E396EEADFFADD8
:10554000E39762857385848595850E94D7459B0185
:10555000AC01C801B7010E94D8456D837E838F835B
:105560009887B501882777FD8095982F0E94DB46A4
:105570009B01AC01E396AEADBFADE3971E966D9176
:105580007D918D919C9151970E94D7459B01AC01D3
:10559000C801B7010E94D8452B013C016FA178A535
:1055A00089A59AA59B01AC010E948F479B01AC0184
:1055B0006AE979E989E19FE30E94D7457B018C0183
:1055C0006D817E818F8198859B01AC010E948F4700
:1055D0009B01AC01C801B7010E94D7457B018C013A
:1055E000C301B201A30192010E948F479B01AC014C
:1055F000C801B7010E94D7456BA37CA38DA39EA3CE
:10560000AD96EEADFFADAD978E0E9F1EAF962EAD53
:105610003FADAF97C20ED31EE1964EAD5FADE197A1
:10562000A40EB51EF401E170F070EE0FFF1FEE0F37
:10563000FF1FC60181709070880F991FE82BF92B0E
:10564000C50181709070E82BF92B3E96EE0FFF1F7D
:10565000E3968EAD9FADE397E80FF91FA081B1816E
:10566000BAABA9ABF601EE0FFF1FE470F070C501F5
:1056700082709070E82BF92BC40195958795817005
:105680009070E82BF92B3E96EE0FFF1FE3962EADA0
:105690003FADE397E20FF31F4081518158AB4FA715
:1056A000F501E470F070C401969587958270907052
:1056B000E82BF92BC601959587959595879581706F
:1056C0009070E82BF92B3E96EE0FFF1FE20FF31FB1
:1056D00000811181F401F695E795E470F070C60140
:1056E000969587959695879582709070E82BF92B03
:1056F000C501959587959595879595958795817021
:105700009070E82BF92B3E96EE0FFF1FE20FF31F70
:10571000808191819EA78DA7F601F695E795F69574
:10572000E795E470F070C5019695879596958795F5
:105730009695879582709070E82BF92BC40195950A
:10574000879595958795959587959595879581707A
:105750009070E82BF92B3E96EE0FFF1FE20FF31F20
:10576000A081B181BCA7ABA7F501F695E795F695A9
:10577000E795F695E795E470F070C40192958295EF
:105780008F7089279F70892782709070E82BF92B82
:10579000C601959587959595879595958795959546
:1057A00087959595879581709070E82BF92B3E969B
:1057B000EE0FFF1FE20FF31F20803180F401F295FE
:1057C000E295EF70EF27FF70EF27E470F070C601ED
:1057D00096958795929582958F7089279F708927D6
:1057E00082709070E82BF92B0A2CAB2C000CAA1CB1
:1057F000BB08000CAA1CBB1CC50181709070E82B73
:10580000F92B3E96EE0FFF1FE20FF31FE080F180B1
:10581000CC0CCD2CCC1CDD08B1E0CB22DD24CC0C93
:10582000DD1CCC0CDD1CB594A794E1E0AE22BB24BA
:10583000AA0CBB1CCA28DB28880C892C881C990858
:10584000F1E08F229924C828D9282EE030E0C20E3A
:10585000D31ECC0CDD1CE3964EAD5FADE397C40EBA
:10586000D51ED601CD90DC90A196EEADFFADA197EF
:105870003B96EE0FFF1FE40FF51F8081918101968B
:10588000918380836BA17CA18DA19EA120E030E05B
:1058900040E050E00E943C4688230CF450C44FA5E1
:1058A00058A9040F151F89A99AA9080F191FADA59A
:1058B000BEA50A0F1B1FEBA5FCA50E0F1F1F020D97
:1058C000131D0E0D1F1D0C0D1D1D7801F594E79481
:1058D000F594E794F594E794F594E794F594E794B8
:1058E000F1E0EF22FF246801D594C794D594C794C2
:1058F000D594C794D594C79421E0C222DD244801F1
:1059000095948794959487949594879431E0832215
:105910009924B3E0AB2EB12CA022B12241E0A41611
:10592000B10409F47EC492E0A916B10481F1C20168
:10593000B3014FA058A469A47AA42D813E814F8160
:1059400058852FA338A749A75AA79C01AB01C9576F
:10595000DF4F8883C758D040C857DF4F3883C858B7
:10596000D040C757DF4F6883C958D040C657DF4F74
:105970005883CA58D040C957DF4F88819981AA817E
:10598000BB81C758D0408D839E83AF83B887E8140E
:10599000F90409F434C4EC14FD0409F43DC48C2466
:1059A0009D24E814F90449F08FA198A5A9A5BAA5EA
:1059B000B0588FA398A7A9A7BAA76BA17CA18DA166
:1059C0009EA19B01AC010E948F476B017C01AB281B
:1059D00009F06AC3C301B2012FA138A549A55AA590
:1059E0000E94D8452B013C01C701B60120E030E000
:1059F00040E051E40E948F479B01AC01C701B60112
:105A00000E948F477B018C016D817E818F819885FB
:105A1000A30192010E94D8459B01AC01C801B701C6
:105A20000E948F476BAB7CAB8DAB9EABE396AEAD6C
:105A3000BFADE3975896CD90DC90599756968D90D0
:105A40009C905797B601680D791D5A96AD90BC9001
:105A50005B976A0D7B1D882777FD8095982F0E94A4
:105A6000DB462BEA3AEA4AE25EE30E948F477B017B
:105A70008C01E396EEADFFADE397628B738B848B65
:105A8000958BB401882777FD8095982F0E94DB467F
:105A90009B01AC01E396AEADBFADE39716966D9159
:105AA0007D918D919C9119970E94D7459B01AC01E6
:105AB000C801B7010E94D84569837A838B839C8390
:105AC000B601882777FD8095982F0E94DB469B01C1
:105AD000AC01E396EEADFFADE397628573858485F7
