:100000000C946D020C949A020C949A020C949A022D
:100010000C949A020C949A020C949A020C949A02F0
:100020000C949A020C949A020C949A020C949A02E0
:100030000C949A020C94A4330C949A020C949A0295
:100040000C949A020C949A020C949A020C949A02C0
:100050000C949A020C949A020C949A020C94B64254
:100060000C949A020C94AE3A0C94FA3B0C949A02BB
:100070000C949A020C949A020C949A020C949A0290
:100080000C949A020C949A020C949A020C949A0280
:100090000C94EE3A0C94393C0C949A020C94483926
:1000A0000C949A020C949A020C949A020C949A0260
:1000B0000C949A020C949A020C949A020C949A0250
:1000C0000C949A020C949A020C949A020C942E3B73
:1000D0000C94783C0C949A020C946E3B0C94B73CB4
:1000E0000C949A02013A9A399A399A399A399A397A
:1000F0009A399A390B3A9A399A399A399A399A39F6
:100100009A399A390B3A9A399A399A399A399A39E5
:100110009A399A39133A9A399A399A399A399A39CD
:100120009A399A39273A9A399A399A399A399A39A9
:100130009A399A39133A9A399A399A399A399A39AD
:100140009A399A39C9399A399A399A399A399A39E8
:100150009A399A39D6399A399A399A399A399A39CB
:100160009A399A39C2399A399A399A399A399A39CF
:100170009A399A39573A9A399A399A399A399A3929
:100180009A399A39B6399A399A399A399A399A39BB
:100190009A399A39DF399A399A399A399A399A3982
:1001A0009A399A39F8399A399A399A399A399A3959
:1001B0009A399A39F8399A399A399A399A399A3949
:1001C0009A399A39F8399A399A399A399A399A3939
:1001D0009A399A39F8399A399A399A399A399A3929
:1001E0009A399A39AD399A399A399A399A399A3964
:1001F0009A399A39B2399A399A399A399A399A394F
:100200009A399A39AD399A399A399A399A399A3943
:100210009A399A39B2399A399A399A399A399A392E
:100220009A399A39323A9A399A399A399A399A399D
:100230009A399A3970399A399A399A399A399A3950
:100240009A399A3970399A399A399A399A399A3940
:100250009A399A3985399A399A399A399A399A391B
:100260009A399A39513A9A399A399A399A399A393E
:100270009A399A39513A005EBCE2613FDD83C29CF3
:100280007E20A3FD1F419DC3217FFCA2401E5F0174
:10029000E3BD3E6082DC237D9FC1421CFEA0E1BF26
:1002A0005D0380DE3C62BEE0025CDF81633D7C2258
:1002B000C09E1D43A1FF4618FAA427799BC584DA86
:1002C0003866E5BB5907DB856739BAE40658194734
:1002D000A5FB7826C49A653BD987045AB8E6A7F9E6
:1002E0001B45C6987A24F8A6441A99C7257B3A6418
:1002F00086D85B05E7B98CD2306EEDB3510F4E1046
:10030000F2AC2F7193CD114FADF3702ECC92D38DF3
:100310006F31B2EC0E50AFF1134DCE90722C6D33A5
:10032000D18F0C52B0EE326C8ED0530DEFB1F0AED7
:100330004C1291CF2D73CA947628ABF51749085605
:10034000B4EA6937D58B5709EBB536688AD495CBB3
:100350002977F4AA4816E9B7550B88D6346A2B7565
:1003600097C94A14F6A8742AC896154BA9F7B6E897
:100370000A54D7896B3500002100240027002A0089
:100380002D003000330001010000040107010A01C3
:1003900000002200250028002B002E003100340030
:1003A00002010000050108010B01000020002300EC
:1003B000260029002C002F0032000001000003015C
:1003C00006010901050505050705080808080202D8
:1003D00002020A0A080804040404010101010101DF
:1003E00001010303030303030303040707070C0CC2
:1003F0000C0C0C0C0C0C0202020206060606060689
:1004000006060B0B0B0B0B0B0B0B0102102020082D
:10041000081020401020408002010201080402015F
:1004200001020408102040808040201008040201CE
:100430008004020180402010080402010804020127
:1004400001020408102040800102040810204080AE
:100450000000090A02080B0C0D0706030401000046
:10046000000000000000000000000000000000008C
:1004700000000000000000000000000011100F004C
:10048000000000000000000000000000000000006C
:10049000000000000000494E46494E4954594E4163
:1004A0004ECDCCCC3D0AD7233C17B7D13877CC2BD7
:1004B000329595E6241FB14F0A000020410000C884
:1004C0004200401C4620BCBE4CCA1B0E5AAEC59D05
:1004D00074007C21C8372A3E752111241FBECFEF3E
:1004E000D1E2DEBFCDBF00E00CBF1AE0A0E0B2E079
:1004F000E0E5F2E900E00BBF02C007900D92AA38D8
:10050000B107D9F71BBE10E1AAE8BAE001C01D92FD
:10051000AB3BB107E1F714E0C8EDD4E004C022978B
:10052000FE010E94D548C23DD107C9F70E94603F35
:100530000C941B490C940000CF93DF93BC018230D4
:10054000910510F462E070E0A091B710B091B8107E
:10055000ED01E0E0F0E040E050E021C088819981C9
:100560008617970769F48A819B81309719F09383E6
:10057000828304C09093B8108093B710FE0134C0FA
:100580006817790738F44115510519F08417950754
:1005900008F4AC01FE018A819B819C01E90120974E
:1005A000E9F641155105A9F1CA01861B970B04977D
:1005B00008F4BA01E0E0F0E02AC08D919C91119717
:1005C00084179507F9F46417750781F412968D91D5
:1005D0009C911397309719F09383828304C0909372
:1005E000B8108093B710FD0132964CC0CA01861B2B
:1005F000970BFD01E80FF91F6193719302978D939B
:100600009C9340C0FD01828193819C01D901109788
:10061000A1F68091B5109091B610892B41F480918C
:100620006108909162089093B6108093B510409144
:100630006308509164084115510541F44DB75EB708
:1006400080915F0890916008481B590B2091B5106C
:100650003091B610CA01821B930B8617970780F062
:10066000AB014E5F5F4F8417950750F0420F531F49
:100670005093B6104093B510F9016193719302C085
:10068000E0E0F0E0CF01DF91CF910895CF93DF93C9
:10069000009709F450C0EC0122971B821A82A091A6
:1006A000B710B091B810109709F140E050E0AC17C6
:1006B000BD0708F1BB83AA83FE0121913191E20FAE
:1006C000F31FAE17BF0779F48D919C911197280FF6
:1006D000391F2E5F3F4F3983288312968D919C914D
:1006E00013979B838A834115510571F4D093B810F9
:1006F000C093B71020C012968D919C911397AD01B5
:10070000009711F0DC01D3CFFA01D383C28321918A
:100710003191E20FF31FCE17DF0769F488819981C9
:10072000280F391F2E5F3F4FFA01318320838A81C2
:100730009B8193838283DF91CF910895A0E0B0E005
:10074000E4EAF3E00C94EC48EC01A880B980CA809C
:10075000DB80A114B104C104D10441F484E2A82EC9
:1007600089EDB82E8BE5C82E87E0D82EC601B501DD
:100770002DE133EF41E050E00E94A44827EA31E444
:1007800040E050E00E9444487B018C01C601B50165
:100790002DE133EF41E050E00E94A448CA01B901C5
:1007A0002CEE34EF4FEF5FEF0E9444486E0D7F1D3B
:1007B000801F911F97FF04C0615070408040904897
:1007C000688379838A839B839B01AC015F77B9013E
:1007D000CA01CDB7DEB7EAE00C9408490E949E0337
:1007E000089585E698E00E949E0308956093650849
:1007F0007093660880936708909368080895662749
:1008000077270C946E06FC0188279927E89421919C
:100810002032E9F3293010F02E30C8F32B3241F0AA
:100820002D3239F4689404C00E946504820F911D32
:10083000219120532A30C0F31EF4909581959F4F4B
:100840000895FB01DC0102C001900D92415050401F
:10085000D8F70895FB01DC018D91019080190110FA
:10086000D9F3990B0895009731F4DA018D919C9199
:10087000009709F40EC0DC01FB013D912191222378
:1008800019F03217C9F3FACF332331F4DA011D928C
:100890001C928827992708951197AF93BF93FB0166
:1008A0003D912191321771F4332321F48827992740
:1008B000119702C01E921196FA01A193B0839F91E5
:1008C0008F910895222369F7EACF7AE0979F902DC0
:1008D000879F802D910D11240895AEE0B0E0E3E7ED
:1008E000F4E00C94F2480E891F8986E08C831A8309
:1008F00009838FEF9FE79E838D839E01265E3F4F86
:10090000CE010196688D798DA9010E9491042F81F5
:100910003885020F131FF80110822E96E4E00C9424
:100920000E49ABE0B0E0E7E9F4E00C94E4483C01A8
:100930002B015A01FC0117821682838181FD03C0BD
:100940006FEF7FEFC6C19AE0892E1E010894211C2B
:10095000311CF3012381F20123FD859123FF819155
:100960002F01882309F4B2C1853239F423FD859122
:1009700023FF81912F01853229F490E0B3010E9479
:10098000FC07E7CF982FFF24EE249924FFE1FF1501
:10099000D0F09B3269F09C3228F4903259F09332B7
:1009A00091F40EC09D3249F0903369F441E024C0C7
:1009B00052E0F52A84E0F82A28C098E0F92A25C0F8
:1009C000E0E1FE2A22C0F7FC29C0892F80538A303B
:1009D00070F4F6FE05C0989C902C1124980E15C05A
:1009E000E89CE02C1124E80EF0E2FF2A0EC09E32B3
:1009F00029F4F6FC6BC140E4F42A07C09C3619F4D4
:100A000050E8F52A02C0983649F4F20123FD959189
:100A100023FF91912F01992309F0B8CF892F855495
:100A2000833018F08052833038F444E050E0A40E54
:100A3000B51E5FE359830FC0933631F0933779F0D9
:100A4000933509F056C020C0F5018081898342E0CA
:100A500050E0A40EB51E610101E010E012C0F501E6
:100A6000C080D180F6FC03C06FEF7FEF02C0692D1C
:100A700070E042E050E0A40EB51EC6010E94F107EE
:100A80008C015FE7F52214C0F501C080D180F6FC2F
:100A900003C06FEF7FEF02C0692D70E042E050E0CD
:100AA000A40EB51EC6010E94E6078C0150E8F52A87
:100AB000F3FE07C01AC080E290E0B3010E94FC0779
:100AC000EA948E2D90E008171907A8F30EC0F601DE
:100AD000F7FC8591F7FE81916F0190E0B3010E94D0
:100AE000FC07E110EA94015010400115110579F757
:100AF000EAC0943611F0993669F5F7FE08C0F501A1
:100B0000208131814281538184E090E00AC0F50167
:100B1000808191819C01442737FD4095542F82E0CC
:100B200090E0A80EB91E9FE6F92257FF09C0509524
:100B30004095309521953F4F4F4F5F4FE0E8FE2A9B
:100B4000CA01B901A1012AE030E00E942808D82E8C
:100B5000D21840C0953729F41F2D1F7E2AE030E0BF
:100B60001DC01F2D197F9F3661F0903720F49835F6
:100B700009F0ACC00FC0903739F0983709F0A6C023
:100B800004C028E030E00AC0106114FD146020E1C8
:100B900030E004C014FD166020E132E017FF08C009
:100BA000F501608171818281938144E050E008C049
:100BB000F50180819181BC0180E090E042E050E04D
:100BC000A40EB51EA1010E942808D82ED2188FE7C6
:100BD000F82EF122F6FE0BC05EEFF522D91438F4A0
:100BE000F4FE07C0F2FC05C08FEEF82202C01D2DF6
:100BF00001C0192DF4FE0DC0FE01ED0DF11D808127
:100C0000803319F499EEF92208C01F5FF2FE05C087
:100C100003C08F2D867809F01F5F0F2DF3FC14C0E1
:100C2000F0FE0FC01E1510F09D2C0BC09D2C9E0CCD
:100C3000911A1E2D06C080E290E0B3010E94FC07CD
:100C40001F5F1E15C0F304C01E1510F4E11A01C089
:100C5000EE2404FF0FC080E390E0B3010E94FC0784
:100C600002FF1DC001FD03C088E790E00EC088E5CB
:100C700090E00BC0802F867891F001FF02C08BE2DC
:100C800001C080E2F7FC8DE290E0B3010E94FC0716
:100C900006C080E390E0B3010E94FC079A94D91447
:100CA000C0F3DA94F101ED0DF11D808190E0B30104
:100CB0000E94FC07DD20A9F706C080E290E0B301A6
:100CC0000E94FC07EA94EE20C1F743CEF30166814F
:100CD0007781CB012B96E2E10C940049A0E0B0E0D3
:100CE000E4E7F6E00C94EA48EC015B01611571055C
:100CF00019F0FB0191838083F9908F2D90E00E9481
:100D0000D948892BC9F7FDE2FF1621F4F990EE24AA
:100D1000E39405C02BE2F21609F4F990EE248E015B
:100D200001501040C80166E974E043E050E00E94C1
:100D3000CE07892B01F58E010E5F1F4FC80169E9AF
:100D400074E045E050E00E94CE07892B19F48E0133
:100D5000095F1F4FA114B10419F0F501118300833D
:100D6000E0FC04C070E090E080E814C070E090E027
:100D700080E86FEF08C1C8016EE974E043E050E01D
:100D80000E94CE07892B69F4A114B10429F470E004
:100D900090E080EC6FE7F7C02296F501D183C08325
:100DA000F6CF8824992440E050E060E070E0EF2D19
:100DB000E053EA30A0F5F2E0EF2A8E2D90E09C019E
:100DC00028703070E2FE06C0232B79F50894811C50
:100DD000911C2BC0232B19F0089481089108DB018A
:100DE000CA0112E0880F991FAA1FBB1F1A95D1F7DD
:100DF000480F591F6A1F7B1F440F551F661F771F1F
:100E00004E0F511D611D711D483929E9520729E90D
:100E1000620729E1720748F084E0E82A06C0EE3F45
:100E200031F4E3FC39C098E0E92AF990C0CFE5330A
:100E300011F0E53189F529912D3219F4E0E1EE2A1E
:100E400005C02B3219F081E090E003C0299182E0C7
:100E500090E0E22FE053EA3018F0C81BD90B1CC019
:100E600020E030E0FCE020383F075CF4C901880F47
:100E7000991F880F991F280F391F220F331F2E0F1C
:100E8000311DE991E053EA3068F3E4FE03C0309588
:100E900021953F4F820E931ECE2CDD24E1FE07C02C
:100EA000A114B10421F02197F501D183C083CB01B6
:100EB000BA010E9427477B018C01F3E0CF22DD2499
:100EC00023E0C216D10421F417FB109517F91095F1
:100ED00057016801C801B70120E030E040E050E070
:100EE0000E948A46882309F44AC097FE0DC025EB6C
:100EF000E22E24E0F22E9094819491089394C0E223
:100F0000D0E000E010E012C09DECE92E94E0F92E54
:100F1000F6CFF7012591359145915491C601B50160
:100F20000E94DD475B016C018C1A9D0A8C169D06A0
:100F300084F7D595C7950F5F1F4F0630110529F02F
:100F40008CEF9FEFE80EF91EF1CFC501D6017C01B1
:100F50008D018C2D880F8D2D881F8F3F51F0C6017C
:100F6000B50120E030E040E050E00E948A4688234E
:100F700031F482E290E09093BA108093B9107E2D04
:100F80009F2D802F612F272F392F482F562FB901E2
:100F9000CA01CDB7DEB7ECE00C940649FB01DC01D9
:100FA0004150504088F08D9181341CF08B350CF409
:100FB000805E659161341CF06B350CF4605E861BBD
:100FC000611171F3990B0895881BFCCFFC0105900A
:100FD000615070400110D8F7809590958E0F9F1F3B
:100FE0000895FC016150704001900110D8F7809580
:100FF00090958E0F9F1F08950F931F93CF93DF93AC
:101000008C01EB018B8181FF1BC082FF0DC02E8103
:101010003F818C819D812817390764F4E881F9812B
:101020000193F983E88306C0E885F985802F199537
:10103000892B31F48E819F8101969F838E8302C01C
:101040000FEF1FEFC801DF91CF911F910F9108950E
:10105000FA01AA27283051F1203181F1E8946F93E9
:101060006E7F6E5F7F4F8F4F9F4FAF4FB1E03ED08F
:10107000B4E03CD0670F781F891F9A1FA11D680F2D
:10108000791F8A1F911DA11D6A0F711D811D911D60
:10109000A11D20D009F468943F912AE0269F1124D5
:1010A0003019305D3193DEF6CF010895462F477039
:1010B000405D4193B3E00FD0C9F7F6CF462F4F7094
:1010C000405D4A3318F0495D31FD4052419302D0F2
:1010D000A9F7EACFB4E0A695979587957795679598
:1010E000BA95C9F700976105710508959B01AC0198
:1010F0000A2E06945795479537952795BA95C9F7BF
:10110000620F731F841F951FA01D0895FC0185ECBD
:1011100099E0918380831282138214821582168251
:101120001782108611860895FC0185EC99E0918361
:10113000808342835383648375831682178210866B
:1011400011860895FC0185EC99E0918380830895D0
:10115000FC0185EC99E09183808308950895EF92D6
:10116000FF920F931F93CF93DF93EC010E94FE42F7
:101170007B018C018E819F81A885B985A80197018B
:10118000281B390B4A0B5B0B8A819B81AC81BD818B
:10119000281739074A075B0758F0E881F98100846E
:1011A000F185E02DCE011995EE82FF82088719871F
:1011B000DF91CF911F910F91FF90EF9008950F93C2
:1011C0001F938C010E94FE42F8016683778380871B
:1011D00091871F910F910895FC0185EC99E091830F
:1011E0008083CF010E94753F0895089508950A975E
:1011F0000E94FB08089508950F931F938C01FC0132
:1012000013A20E94FE42F801658B768B878B908F2C
:101210001F910F9108950F931F938C01FC0112A24F
:101220000E94FE42F801658B768B878B908F1F9111
:101230000F910895CF93DF93EC011DA21CA2672BA1
:1012400071F086E490E1BA010E9456410E94FE428C
:10125000698F7A8F8B8F9C8FDF91CF91089584E275
:1012600090E1BA010E945641F1CF0F931F930A9764
:101270000E943D091F910F9108958F929F92AF9206
:10128000BF92CF92DF92EF92FF920F931F93CF9373
:10129000DF936C017A01B22EA32E48016A307105EA
:1012A000E9F06B30710509F450C084E290E165E526
:1012B00072E00E94564120E030E040E050E0B90189
:1012C000CA01DF91CF911F910F91FF90EF90DF90B6
:1012D000CF90BF90AF909F908F90089584E290E15F
:1012E00060E072E00E9437411E141F04BCF48B2D95
:1012F0009A2D9C01E90100E010E06991799184E266
:1013000090E10E94374184E290E162E172E00E9444
:1013100037410F5F1F4F0E151F057CF384E290E1EC
:101320000E94A73FF60184859585019721F6C601A5
:1013300061E070E044E152E00E941A09F401108279
:1013400020E030E040E050E0BACF4115510531F0E7
:1013500084E290E166E272E00E94564181E0F6018B
:1013600081A384E290E16AE372E00E945641F601B3
:10137000258D368D478D50A1A2CFCF93DF93EC0101
:101380001DA21CA2672B89F086E490E1BA01A90195
:101390002AE030E00E9404410E94FE42698F7A8F69
:1013A0008B8F9C8FDF91CF91089584E290E1BA01F9
:1013B000A9012AE030E00E940441EECFCF93DF93F1
:1013C000EC011DA21CA2672B81F086E490E1BA011A
:1013D0004AE050E00E9418410E94FE42698F7A8FD5
:1013E0008B8F9C8FDF91CF91089584E290E1BA01B9
:1013F0004AE050E00E941841EFCFCF93DF93EC0119
:101400001DA21CA2672B89F086E490E1BA01A90114
:1014100022E030E00E94A3420E94FE42698F7A8F50
:101420008B8F9C8FDF91CF91089584E290E1BA0178
:10143000A90122E030E00E94A342EECFFF920F9379
:101440001F93CF93DF93EC018B016115710561F45C
:1014500084E290E10E94853D892BC1F5DF91CF9117
:101460001F910F91FF90089586E490E10E94853DC1
:10147000892BA1F386E490E10E94963D892B71F3BC
:10148000FC88FEE1FF1548F10115110509F047C080
:1014900084E290E10E94B73DFE01EF0DF11D86A3AD
:1014A0008C89FE01E80FF11D96A18F5F8C8B9A301D
:1014B000A9F68F3120F4FE01E80FF11D16A282E09B
:1014C00090E09DA38CA31D870C87C8CF84E290E198
:1014D0000E94963D892B11F2D3CFCB5BDF4F8881E1
:1014E000C554D0408A3009F4B9CF84E290E169E66E
:1014F00072E00E9437418E010A5D1F4F84E290E145
:10150000B8010E94564180E2F80111928A95E9F7EC
:101510001C8ADF91CF911F910F91FF90089586E46F
:1015200090E10E94B73DB8CF2F923F924F925F92C9
:101530006F927F928F929F92AF92BF92CF92DF92E3
:10154000EF92FF920F931F93DF93CF93CDB7DEB748
:1015500067970FB6F894DEBF0FBECDBF6C016DB6B6
:101560007EB6DC0194968D919C919597009729F118
:101570008130910509F43EC0029709F458C00FB6B6
:10158000F8947EBE0FBE6DBE67960FB6F894DEBFB0
:101590000FBECDBFCF91DF911F910F91FF90EF90C4
:1015A000DF90CF90BF90AF909F908F907F906F9083
:1015B0005F904F903F902F9008950E94FE42F60159
:1015C000218D328D438D548D621B730B840B950BD3
:1015D0006B3071058105910590F2D60159961D92E7
:1015E0001D921D921C925C9781E090E095969C93D1
:1015F0008E939497F60182A1882309F450C0F601D6
:1016000083A1882309F471C0C60160E070E00E94E4
:101610001E0AD60194968D919C919597019709F099
:10162000AECFC60161E070E00E941E0AA8CFD601CD
:1016300059961D921D921D921C925C970E940C431C
:1016400066E2262E312C2C0C3D1C52E0E52EF12CAE
:10165000EC0EFD1EC10162E172E0A7010E9433049D
:101660004A805B80009709F476C05C0100E010E0DE
:101670004E010894811C911C80E090E062E172E0D0
:10168000A7010E9433049C01009709F467C01F5F03
:1016900009F450C0113009F04FC02901EDCF0E946C
:1016A000FE42D60155962D913D914D915C915897F2
:1016B000621B730B840B950B6958734180409040FB
:1016C00008F49DCF0E94FE42F601658B768B878BD6
:1016D000908FC60161E070E046E752E00E941A096F
:1016E00081E0D60192968C934ACF0E94FE42F60189
:1016F000258936894789508D621B730B840B950BA6
:10170000695873418040904008F47ECF0E94FE42A9
:10171000D60155966D937D938D939C935897C601F2
:1017200061E070E041E852E00E941A0981E0F601B0
:1017300083A325CF5C01A0CF812F8250883008F091
:101740009BCFE02FF0E0EE0FFF1FE80DF91D348373
:1017500023830F5F91CFAA24BB2400E0C2016AE873
:1017600072E00E942A040097E1F5F60186849784CE
:101770008114910409F460C0C50166E972E00E9419
:101780002A040097E1F5002329F1D401ED91FC91A1
:10179000E480F5808C819D810E9403048C018E8100
:1017A0009F810E94FF039B01AC01C401B801F701B6
:1017B0001995F60164857585C60140E050E00E94E8
:1017C000DE0980E2F10111928A95E9F7D60154967B
:1017D0001C92D5CE84E290E169E972E00E94564104
:1017E000D4CFC2016DE872E00E942A04009709F08C
:1017F0008BC0D60150968D909C905197B9CFC50162
:1018000062EB72E00E942A04009741F58C819D8171
:101810000E940304BC01D401ED91FC910680F78184
:10182000E02DC40119959B01AC01F6016485758515
:10183000C6010E94FD09C5CF84E290E169EB72E028
:101840000E945641D6011D961C921E921C9781E063
:1018500090E095969C938E939497B3CFC50165EBDA
:1018600072E00E942A04009709F0ABCFFDB6EEB6F5
:10187000402F50E08A0101501040C801880F991F85
:101880002DB73EB7281B390B0FB6F8943EBF0FBEDD
:101890002DBF2F5F3F4FB22EA32E101611068CF4D2
:1018A000DE011696F9019E012C5F3F4F440F551F34
:1018B000240F351F8D919D9181939193A217B307AA
:1018C000C9F781E089838C819D810E940304BC015A
:1018D000D401ED91FC910084F185E02DC401A801B3
:1018E0002B2D3A2D8E010F5F1F4F19959B01AC01D7
:1018F0008981882311F58F2D9E2D9C010FB6F894B8
:101900003EBF0FBE2DBF5DCFC20160E972E00E94F5
:101910002A04009721F4F6018288938829CFC20116
:1019200063E972E00E942A04009709F085CF3AE04B
:10193000832E912C8C0C9D1C1BCFF6016485758524
:10194000C6010E94BD09D7CF0F931F938C0186E477
:1019500090E140E855E260E070E00E94F63C0E94B1
:10196000FE42F801658B768B878B908F0E94FE423A
:10197000F801658F768F878F90A304C086E490E18D
:101980000E94B73D86E490E10E94853D892BB1F726
:1019900084E290E16DEC72E00E9437411F910F915B
:1019A00008950A970E94D50C08950F931F938C01F8
:1019B00083ED99E0F8019183808344969387828731
:1019C000C8010A960E94C80FC8010E94A2081F9170
:1019D0000F9108950A970E94EE0C08950F931F939C
:1019E0008C0183ED99E0F80191838083449693877D
:1019F0008287C8010A960E94C80FC8010E94A208E7
:101A0000C8010E94753F1F910F9108950F931F9376
:101A10008C010E948608C8010A960E94C20F83EDBD
:101A200099E0F8019183808344969387828712A27C
:101A300081E083A311A21586148681E090E095A32E
:101A400084A3148A16A21F910F910895FC0185EFBB
:101A500099E091838083CF010E94A2080895FC0140
:101A600085EF99E091838083CF010E94A2080895B9
:101A70000F931F938C0185EF99E0F8019183808388
:101A8000C8010E94A208C8010E94753F1F910F91D2
:101A900008950F931F938C010E94940885EF99E09D
:101AA000F801918380831F910F910895FC01362FD7
:101AB0004D3388F4242F9181920F91839C3318F039
:101AC0009C5391836F5F9081960F9083983110F0B3
:101AD000985190830895842F6CE30E946348292FC6
:101AE000842F0E946348682F630FE5CFFC01608359
:101AF0004183128208950895FC0112821382148298
:101B00001582168217821086118612861386148615
:101B1000158616861786108A118208950895CF9328
:101B2000DF93DB01FA01E9019C918081981718F09D
:101B30002881291728F420E0822FDF91CF91089582
:101B4000821749F0981789F09217B1F021E0822F9F
:101B5000DF91CF91089511966C918181681758F3A8
:101B600020E08981681740F7F1CF20E011969C9121
:101B70008181981708F3EACF20E011969C91898122
:101B80009817D0F6E3CFFB01DA0140813C9143176F
:101B900071F1222369F0341788F5618111965C9107
:101BA000431B8CE3489FC0011124860F851B0895B9
:101BB0004317D8F04317A1F0618111965C91842FEF
:101BC00090E0831B91092CE330E0FC01E29FC0010F
:101BD000E39F900DF29F900D1124860F851B0895B1
:101BE00011965C916181651750F780E008959181AD
:101BF00011968C911197981761F6F7CF4317A9F0BA
:101C0000618111965C913731B0F427E1231B8CE39D
:101C100090E0289F202D11248CE3489F802D1124D3
:101C2000845C860F851B820F0895618111965C91FB
:101C3000561748F7B5CF20E0EFCFFC01628343830E
:101C40006583468384818783CF01059660E0418167
:101C50000E94560D08950F931F938C01FC018085FF
:101C600083878185848741814F5FC8010B9660E03F
:101C70000E94560DF80182818687838187871F9194
:101C80000F910895AF92BF92CF92DF92EF92FF92A1
:101C90000F931F93CF93DF93EC016B011882EB84BA
:101CA000FA80FE1408F448C0EF1409F440C08BE039
:101CB000A82EB12CAC0EBD1E8E010E5F1F4FCE01A3
:101CC000B601A50198010E948F0D882309F045C037
:101CD0008D81F81608F04FC09E012B5F3F4FCE015B
:101CE000B601A8010E948F0D882309F082C0888563
:101CF0008E1508F45EC0E81609F456C08E01085F20
:101D00001F4FCE01B601A50198010E948F0D8823B7
:101D100009F067C0CE01B601A80121E00E94C30D01
:101D20008883882309F45AC025E030E018C09C85D8
:101D30008B81891708F0BBCF8E010E5F1F4F9BE090
:101D4000A92EB12CAC0EBD1ECE01B601A801950185
:101D50000E948F0D882309F0BBCF20E030E0C9013D
:101D6000DF91CF911F910F91FF90EF90DF90CF9077
:101D7000BF90AF900895F816B9F1AE014B5F5F4F79
:101D8000CE01B60198010E948F0D882309F0AFCFD4
:101D9000CE01B601A80121E00E94C30D88838823EB
:101DA00089F123E030E0DBCF9C858985891708F035
:101DB000A5CF8E01085F1F4FCE01B601A801950186
:101DC0000E948F0D882369F0CE01B601A80120E0A2
:101DD0000E94C30D8883882309F0A6CF24E030E059
:101DE000BECF21E030E0BBCF9E818B81891728F6E2
:101DF00073CFCE01B601A80120E00E94C30D8883F5
:101E0000882379F622E030E0AACFFC018081089592
:101E10000F931F93DF93CF93CDB7DEB72A970FB6FB
:101E2000F894DEBF0FBECDBF9C018DB79EB70A9759
:101E30000FB6F8949EBF0FBE8DBFEDB7FEB73196BB
:101E40008E010F5F1F4FADB7BEB712961C930E9356
:101E5000119781E093E093838283D9018C918483ED
:101E6000158211968C9111978683178212968C9108
:101E7000808711860E946D048DB79EB70A960FB6B3
:101E8000F8949EBF0FBE8DBF84E290E1B8010E941E
:101E900056412A960FB6F894DEBF0FBECDBFCF9144
:101EA000DF911F910F910895CF92DF92EF92FF92F1
:101EB0001F93CF93DF93EC016B017A01122F84E221
:101EC00090E160E173E00E943741C6010E94080F73
:101ED00084E290E10E94A73F84E290E16AE173E02E
:101EE0000E943741C7010E94080F84E290E163E23B
:101EF00073E00E94374184E290E1612F4AE050E0B4
:101F00000E94A14019831C33A0F5F7016081F601FE
:101F100080816817A9F04181682FCE010E941D0EB3
:101F2000F7019181808188879987CE010E942B0ECD
:101F3000DF91CF911F91FF90EF90DF90CF900895A8
:101F4000F7018181F6014181841738F7242F30E0B1
:101F5000281B3109898190E028173907F4F684E2BB
:101F600090E16EE273E00E945641F601608141818A
:101F7000D4CF84E290E169ED72E00E9456418BE398
:101F80008983C3CFFC0185E09AE091838083089523
:101F9000FC0185E09AE0918380830895FC0185E04F
:101FA0009AE0918380830895FC0185E09AE0918313
:101FB0008083CF010E94753F089560E070E080E06B
:101FC00090E00895FC01848590E08617970789F1D9
:101FD0006487768765876530710524F484E090E036
:101FE0009687858765857685882777FD8095982FE4
:101FF0000E94294720E030E048EC52E40E948E46DF
:1020000020E030EC4FE754E40E94DD470E94FB469D
:1020100020E431E040E050E00E9444482AE09695F8
:102020008795779567952A95D1F770939B00609374
:102030009A0008950F931F930A970E9422101F91F0
:102040000F91089584E290E168E573E00E945641A3
:1020500008950A970E942D100895FC0161157105DD
:1020600081F465857685882777FD8095982F0E9475
:102070002947FB01A82F692F4A2F562FBF01CA01FC
:1020800008956130710559F084E290E16CE673E0E7
:102090000E9456414A2F562FBF01CA0108956389F5
:1020A000748985899689E5CF0A970E94581008950A
:1020B000EF92FF920F931F93CF93DF93EC0179017F
:1020C0008A01672BF9F484E290E16FE773E00E94E4
:1020D000374184E290E1B801A70122E030E00E949C
:1020E000A342C801B7010E94F6469B01AC01CE0194
:1020F000B9010E94E20FDF91CF911F910F91FF90E4
:10210000EF90089584E290E16CE673E00E945641FE
:10211000DF91CF911F910F91FF90EF9008956F92F3
:102120007F928F929F92AF92BF92CF92DF92EF9267
:10213000FF920F931F93CF93DF93EC010E94FE4217
:102140002F85388949895A89621B730B840B950B3B
:102150006958734180409040D8F5EF89F88DA0818F
:10216000B18116962D913C911797CF01F9011995E0
:10217000E98DFA8DA081B18116962D913C9117972A
:10218000CF01F9011995EB8DFC8DA081B1811696D7
:102190002D913C911797CF01F9011995ED8DFE8D89
:1021A000A081B18116962D913C911797CF01F9012D
:1021B0001995DF91CF911F910F91FF90EF90DF90D4
:1021C000CF90BF90AF909F908F907F906F90089529
:1021D000A98DBA8DED91FC9111970284F385E02DC4
:1021E000CD0119957B018C01AF89B88DED91FC91E2
:1021F00011970284F385E02DCD011995D62EC72EB7
:10220000B82EA92EAB8DBC8DED91FC911197028457
:10221000F385E02DCD011995962E872E782E692E07
:10222000B701C8012D2D3C2D4B2D5A2D0E948A46F9
:10223000882324F4ED2CFC2C0B2D1A2DB701C8019A
:10224000292D382D472D562D0E948A46882324F4A7
:10225000E92CF82C072D162D6B897C898D899E8998
:102260009701A8010E948A46882309F45CC0C7012F
:10227000D8018B8B9C8BAD8BBE8BBB24B701C80167
:1022800020E030E040ED51E40E948A4688230CF4BF
:1022900060C0B701C80120E030E040EF51E40E9487
:1022A000D94718165CF4B701C80120E030E04CE0D3
:1022B00052E40E948A4618160CF045C0CC24DD2456
:1022C000B701C80120E030E04CE052E40E94D94759
:1022D000181654F4B701C80120E030E040E252E49F
:1022E0000E948A4618164CF5B701C80120E030E07C
:1022F00040E252E40E94D9471816E4F434E6C32EB3
:10230000D12C84E290E16EE873E00E94374184E2D0
:1023100090E1A701B80122E030E00E94A342CE0183
:10232000B6010E94E20F0E94FE426F87788B898B74
:102330009A8B13CFBB20B9F3E4CF42E3C42ED12C48
:10234000BB24B394D1CF59E1C52ED12CBB24B39477
:10235000B7CFBB24B3949DCFEF92FF920F931F93FF
:102360007C0182E061E00E94DE4400E910E0D801D7
:102370001C9280E491E0909397008093960081E115
:102380008093910082E061E00E94DE44F801808148
:1023900080628083F701A789B08DED91FC91119740
:1023A0000480F581E02DCD011995F701A18DB28D45
:1023B000ED91FC9111970480F581E02DCD011995E7
:1023C000F701A38DB48DED91FC9111970480F581F7
:1023D000E02DCD011995F701A58DB68DED91FC91FC
:1023E00011970480F581E02DCD011995D7015796FD
:1023F000ED91FC915897A081B18116962D913C9159
:102400001797CF01F9011995D7015996ED91FC91D4
:102410005A97A081B18116962D913C911797CF01C3
:10242000F9011995D7015B96ED91FC915C97A0811C
:10243000B18116962D913C911797CF01F90119950D
:10244000D7015D96ED91FC915E97A081B1811696C2
:102450002D913C911797CF01F9011995C70160E0C3
:1024600070E00E94E20F0E94FE42F7016787708BC6
:10247000818B928B84E290E16DE973E00E9456417A
:10248000C7010E94DF081F910F91FF90EF90089500
:102490000A970E944C1208950F931F938C0183E1B9
:1024A0009AE0F80191838083469693878287C801DA
:1024B0000A960E94C80FC8010E942F0D1F910F910C
:1024C00008950A970E94651208950F931F938C0137
:1024D00083E19AE0F801918380834696938782870F
:1024E000C8010A960E94C80FC8010E942F0DC8019A
:1024F0000E94753F1F910F9108952F923F924F9226
:102500005F926F927F928F929F92AF92BF92CF9283
:10251000DF92EF92FF920F931F93DF93CF9300D040
:102520000F92CDB7DEB75C014B012A0119011C8364
:102530000B83FA82E98248E853E160E070E00E9490
:10254000490DC5010A960E94C20F83E19AE0F50188
:10255000918380834696938782871686158680E0CE
:1025600090E0A0E0B0E0838B948BA58BB68B8AE1E2
:1025700090E00E94783F782E692EB401A20191016B
:10258000E8E8EE2EE3E1FE2E012D112D0E94E4225B
:10259000F501778A608E8AE190E00E94783F782E7C
:1025A000692E0894811C911CB401A2012B813C81ED
:1025B0000E94E422F501718E628E8AE190E00E9411
:1025C000783F782E692E0894811C911CB401A201D9
:1025D00029813A810E94E422F501738E648E8AE19A
:1025E00090E00E94783F782E692E0894811C911CFF
:1025F000B401A20196010E94E422F501758E668E57
:102600008FEF84870F900F900F900F90CF91DF91F5
:102610001F910F91FF90EF90DF90CF90BF90AF9000
:102620009F908F907F906F905F904F903F902F90F2
:1026300008954F925F926F927F928F929F92AF9286
:10264000BF92CF92DF92EF92FF920F931F93CF939F
:10265000DF932C0128E530E0420E531EF201808109
:10266000918128EA3FEF420E531E892B09F047C0A3
:102670009CE3692E712CE301EC9789E9C82E8AE06E
:10268000D82ECC0EDD1EF601E080F1800281138190
:10269000FE01EB52F54FB080A18092808380C8018B
:1026A000B7012B2D3A2D492D582D0E94D9471816C8
:1026B000D4F5C801B701F20125A136A147A150A563
:1026C0000E9425467B018C0120E030E040E050E094
:1026D0000E948A4618160CF04DC0F601E082F18285
:1026E000028313836496C615D70539F624E030E0DB
:1026F000620E731E30E56316710409F0BCCF81E0F1
:10270000F201808BDF91CF911F910F91FF90EF909D
:10271000DF90CF90BF90AF909F908F907F906F9001
:102720005F904F900895C801B7012B2D3A2D492D88
:10273000582D0E948A468823ACF6C801B701F201E1
:1027400025A136A147A150A50E9426467B018C01F8
:102750006B2D7A2D892D982DA80197010E948A460C
:1027600088230CF0BACF8B2D9A2DA92DB82D7C0182
:102770008D01B3CF0F2EF0E0EF2EF0E0FF2EF0E052
:102780000F2FF0E01F2FF02DA8CF4F925F927F9276
:102790008F929F92AF92BF92CF92DF92EF92FF9271
:1027A0000F931F93CF93DF932C01762E59016A016B
:1027B000EE24FF24E701CC0FDD1FCE0DDF1DC65731
:1027C000D54F87012FE0822E912C8E0C9F1C7720F5
:1027D00081F185ED9AE0F801EE0FFF1FEE0FFF1F6C
:1027E000E80FF91FA082B182C282D38289599A4030
:1027F00019F10B5F1F4F21968016910641F708943F
:10280000E11CF11C85E0E816F104A1F681E0F2017B
:10281000808BDF91CF911F910F91FF90EF90DF9010
:10282000CF90BF90AF909F908F907F905F904F9090
:10283000089589E99AE0CFCFC601B5010E94FB4611
:102840006883D7CF84E290E169EA73E00E94564141
:102850000895CF93DF93FC01EB016731710509F413
:1028600076C068317105FCF06932710509F448C021
:102870006A32710584F56832710509F44AC084E250
:1028800090E16DEB73E00E94374184E290E1BE017C
:102890004AE050E00E94184160E070E080E89FEB61
:1028A000DF91CF9108956530710509F447C0663016
:1028B0007105D4F06A307105A9F16B307105F9F634
:1028C000ED5AFF4F608170E080E090E00E94274762
:1028D000DF91CF9108956A32710569F16B3271050C
:1028E00071F6EB5BFF4FEECF6115710541F6678125
:1028F00070E080E090E00E942747DF91CF9108953B
:1029000067AD70E080E090E00E942747DF91CF91B3
:10291000089566AD70E080E090E00E942747DF9167
:10292000CF910895EC5AFF4F60817181828193812C
:10293000DF91CF910895EC5BFF4FC4CF61AD70E0A4
:1029400080E090E00E942747DF91CF910895E15BFE
:10295000FF4F60817181828193810E942947DF91BD
:10296000CF9108950F931F93CF93DF93EC018B01C9
:102970001D8E1E8E1F8E18A2C85ADF4F7983688362
:10298000C855D0400E94FE42698B7A8B8B8B9C8B02
:10299000012B09F4188ADF91CF911F910F910895AF
:1029A0002F923F924F925F926F927F928F929F925F
:1029B000AF92BF92CF92DF92EF92FF920F931F934D
:1029C000DF93CF93CDB7DEB7E4970FB6F894DEBFB1
:1029D0000FBECDBF9AAB89AB4E010894811C911CF0
:1029E000C4010E941A230E94FE422B013C01A9A9A6
:1029F000BAA917968D919C9118978530910509F485
:102A00009DC18630910509F474C1049709F4B8C0DA
:102A100000D00F92A9A9BAA9D396ED90FD900D917F
:102A20001C91D6979F96AD90BD90CD90DC90D2979B
:102A30008CE59FE8A2E8BFE3EDB7FEB78183928300
:102A4000A383B483C40161E17BE045E050E02FE063
:102A500030E0812CE1E09E2E0E9405320F900F9015
:102A60000F900F900E94FE42DC01CB018419950962
:102A7000A609B7098DA79EA7AFA7B8AB6624772490
:102A80004424552484E290E164ED73E00E943741D0
:102A900084E290E14DA55EA56FA578A92AE030E01B
:102AA0000E947B4084E290E165EE73E00E94374132
:102AB00084E290E1B3014AE050E00E94184184E2D0
:102AC00090E166EF73E00E94374184E290E1B20149
:102AD0004AE050E00E94184184E290E169E074E02D
:102AE0000E94564104E1E02EF12C87010451104070
:102AF000F801EF5EF44F408151816281738184E27D
:102B000090E122E030E00E94A04284E290E16AE19C
:102B100074E00E9437410C5F1F4FE016F10641F749
:102B200084E290E10E94A73FE4E1F0E0EE0EFF1E98
:102B3000F0E4EF16F1E0FF06C1F60E94FE42A9A9FB
:102B4000BAA955966D937D938D939C935897E4966F
:102B50000FB6F894DEBF0FBECDBFCF91DF911F91AE
:102B60000F91FF90EF90DF90CF90BF90AF909F902C
:102B70008F907F906F905F904F903F902F9008952F
:102B800014E0212E312C8EEA97E4A1E8BFE3E8ECB3
:102B9000F0E0FCABEBAB00D00F92E9A9FAA9E3A8F7
:102BA000F4A805A916A9A7A4B0A8C1A8D2A8EDB7F2
:102BB000FEB781839283A383B483C40161E17BE088
:102BC00045E050E02FE030E08BA89CA80E94053241
:102BD0000F900F900F900F900E94FE42DC01CB01EE
:102BE00084199509A609B7098DA79EA7AFA7B8AB09
:102BF000442455246624772484E1882E912C2CEEDD
:102C0000C22E2FEFD22EC80CD91C91E1A92E9BE029
:102C1000B92EAC0CBD1CD501ED90FD900D911C9111
:102C2000C801B70120E030E04EE753E40E948A4635
:102C300088230CF5C801B70120E030E040E85FE3ED
:102C40000E9426467B018C0120E030E04FE753E4F0
:102C50000E94D947181654F40F2EF0E0EF2EF0E042
:102C6000FF2EFFE70F2FF3E41F2FF02DF501E08279
:102C7000F18202831383C801B70120E030E04BE604
:102C800053E40E94D9478823A4F00894611C711C66
:102C900024E630E0629EC001639E900D729E900D0E
:102CA00011246BE470E00E946F482B0162157305DC
:102CB000B4F484E090E0C80ED91E8C149D0409F091
:102CC000A4CF80E09CE2891691E0990671F0A4E11E
:102CD000B0E08A0E9B1E882309F491CFD3CE81E009
:102CE0009CE2891691E0990691F7882309F482CF36
:102CF000C9CE00D00F92A9A9BAA9D396ED90FD90A4
:102D00000D911C91D6979F96AD90BD90CD90DC9083
:102D1000D2978EEA97E4A1E8BFE3EDB7FEB78183CF
:102D20009283A383B483C40161E17BE045E050E07A
:102D30002FE030E0B0E88B2E912C8ECEF8E22F2ED3
:102D4000312C86E696E6A6E8BFE3E0E0F1E0FCABD6
:102D5000EBAB21CFEF92FF920F931F93CF93DF93B3
:102D60008C01EC01C25ADF4F48814E3008F05AC046
:102D700084E1489FC00111244CE251E0481B590BEB
:102D80004D3351050CF056C0FA0125ED3AE0A1E1B2
:102D9000EA2EABE0FA2EAC014E0D5F1DC901BA015F
:102DA000AF010E9421048881482F50E04095509542
:102DB000415F5F4F433051051CF5CA01880F991FD1
:102DC000880F991F9C01220F331F220F331F280FDA
:102DD000391F2B52354F83E090E0841B950B880FF1
:102DE000991F880F991FFC01EE0FFF1FEE0FFF1FA9
:102DF000E80FF91FC901B701AF010E9421048881C2
:102E00008F5F8883C80160E070E020E030E040E040
:102E100050E00E94B214DF91CF911F910F91FF906B
:102E2000EF9008950E94D014188280E090E0ECE3C7
:102E3000F0E0ABCFECE3F0E0A8CF4F925F926F925F
:102E40007F928F929F92AF92BF92CF92DF92EF923A
:102E5000FF920F931F93CF93DF932C01CC24DD249B
:102E6000AA24BB2418E5612E712C680E791EC601B8
:102E7000880F991F8C0D9D1D8C010657154F7501EC
:102E8000C0E0D0E04C01F701E756F54F6081718159
:102E9000828193810E94FB46AB01F3018081918185
:102EA000892B31F4E42FF0E0E759F74F408150E0EF
:102EB000F401EC0FFD1FE759F64F6081F8018081A6
:102EC000481739F04083623368F5862FBA010E94B3
:102ED000FF43219684E190E0E80EF91E0F5F1F4F3B
:102EE000C330D10581F60894C11CD11CE4E0F0E0A8
:102EF000AE0EBF1EF5E0CF16D10409F0B8CFF20137
:102F0000108ADF91CF911F910F91FF90EF90DF908A
:102F1000CF90BF90AF909F908F907F906F905F9079
:102F20004F9008956253F201838194810E94EE33A1
:102F3000D0CF0F931F938C0187E39AE0F801918320
:102F40008083C801815A9F4F0E94CD35C801CC961D
:102F50000E948E0DC8010E94C80F1F910F91089505
:102F60000F931F938C0187E39AE0F801918380838C
:102F7000C801815A9F4F0E94CD35C801CC960E944E
:102F80008E0DC8010E94C80FC8010E94753F1F9195
:102F90000F910895CF92DF92EF92FF920F931F93BC
:102FA000CF93DF938C016A0179010E94C20F87E3FE
:102FB0009AE0D8018D939C93C801CC960E947C0D19
:102FC000C801815A9F4F0E94E735E80119AE21E000
:102FD0002E872D87FE82ED82809178099091790964
:102FE000035B1F4FF801918380830D54104082E0F2
:102FF000D801D7968C93F801E15BFF4F8AE999E9F4
:10300000A9E9BEE3E8018FA798ABA9ABBAAB80E012
:1030100090E0A0E0BFE38BAB9CABADABBEAB065A80
:103020001F4F81E090E0D8018D939C930750104092
:1030300088E0E80189938E0180E090E0A0E0B0E0B4
:1030400088839983AA83BB83065F1F4FD8011C9294
:103050000E5510408CEA9DE0A0E0B0E080839183A3
:10306000A283B383E8011BA61CA61DA61EA62A8365
:10307000DC82CB82188A045A1F4FF8011182108219
:10308000DF91CF911F910F91FF90EF90DF90CF9044
:1030900008956F927F928F929F92AF92BF92CF923C
:1030A000DF92EF92FF920F931F93CF93DF93EC0188
:1030B0006A017B0140E050E060E070E08C010D5A55
:1030C0001F4FB4E5AB2EB12CA80EB91EF8019081AC
:1030D00020E030E0F901EE0FFF1FE20FF31FE40FD5
:1030E000F51FE759F64F8081981709F444C02F5F08
:1030F0003F4F2530310571F74F5F5F4F6B5F7F4F5B
:103100004330510519F7C701B60129E130E040E02D
:1031100050E00E9444487B018C016BA77CA78DA7DF
:103120009EA70E9429479B01AC0160E070E08FE7F9
:1031300093E40E948E466DA37EA38FA398A7E9A275
:10314000FAA20BA31CA3CE0160E070E020E030E007
:1031500040E050E00E94B214DF91CF911F910F9197
:10316000FF90EF90DF90CF90BF90AF909F908F90A7
:103170007F906F900895FB01E20FF11DEE0FFF1F8E
:10318000EE0FFF1FEB52F54FD5016D907D908D90A6
:103190009C9060827182828293824F5F5F4F6B5FEF
:1031A0007F4F4330510509F091CFADCFCF92DF92E1
:1031B000FF920F931F93DF93CF9300D0CDB7DEB76D
:1031C0006C018C01015A1F4FC8010E943A34F82E3D
:1031D000C8010E943E34482F8E010F5F1F4FC80167
:1031E0006F2D0E94760DC601CC96B8010E94420E4A
:1031F000892B29F4F60187819085892B71F4C80108
:103200000E947B0D0F900F900F90CF91DF911F9137
:103210000F91FF90DF90CF90089581AD8F5F81AFC8
:1032200084E290E16AE474E00E945641F60110865F
:10323000178212861186C60161E020E030E040E08E
:1032400050E00E94C513C60160E020E030E040E09D
:1032500050E00E94C51381E0F601808BC6010E94F8
:103260001D17C6014AE050E060E070E00E94491876
:10327000C6CFEF92FF920F931F93CF93DF93EC0192
:10328000FC01E15BFF4F4083518362837383483EBF
:1032900083E0580780E0680780E07807ECF588EE67
:1032A00093E0A0E0B0E080839183A283B383608148
:1032B00071818281938128EE33E040E050E00E94EA
:1032C000A448CA01B90129E130E040E050E00E9481
:1032D00044487B018C016BA77CA78DA79EA70E9409
:1032E00029479B01AC0160E070E08FE793E40E9406
:1032F0008E466DA37EA38FA398A7E9A2FAA20BA383
:103300001CA31D8E1E8E1F8E18A2DF91CF911F91C0
:103310000F91FF90EF90089541565A4E60407040D3
:1033200034F280E69AEEA0E0B0E080839183A2833D
:10333000B383BDCFCF93DF93EC018A818823A1F5BE
:10334000CE0161E020E030E040E050E00E94C51393
:103350008BAD90E02AADFC01EE0FFF1FEE0FFF1FBB
:10336000E80FF91FE20FF11DEE0FFF1FEE0FFF1F19
:10337000EB52F54F80E090E0AFE7B3E480839183B8
:10338000A283B3838AAD8F5F8AAF853009F443C0CF
:10339000CE0160E070E020E030E040E050E00E94CC
:1033A000B214DF91CF9108951BAE1AAECE0161E049
:1033B00020E030E040E050E00E94C51380E090E063
:1033C000A6E1B3E48093DD0A9093DE0AA093DF0ABE
:1033D000B093E00A22E330E040E050E02BA73CA7A6
:1033E0004DA75EA783E393E3A3EAB0E48DA39EA376
:1033F000AFA3B8A729A33AA34BA35CA3CE0160E077
:1034000070E020E030E040E050E00E94B2141A8208
:10341000DF91CF9108951AAE8BAD8F5F8BAF833064
:1034200009F0B6CF1BAEB4CF0F931F93CF93DF93AA
:103430008C01EB01FC017087678384E290E165E514
:1034400074E00E943741C330D10509F4EEC0C430A6
:10345000D105CCF0C530D10509F472C0C530D10515
:103460000CF444C0C630D10509F478C02797C9F5DB
:1034700084E290E16BEA74E00E943741DF91CF91E2
:103480001F910F910895C130D10509F475C0C23064
:10349000D105D4F1C80161E020E030E040E050E027
:1034A0000E94C513035B1F4FF801408151810D54E9
:1034B0001040662757FD6095762FC8010E94491875
:1034C00084E290E165E674E00E943741F80143A58B
:1034D00054A565A576A584E290E12AE030E00E943B
:1034E0000441DF91CF911F910F91089584E290E103
:1034F00064EA74E00E945641C8010E94D014DF9132
:10350000CF911F910F910895CD2B59F7C80161E01C
:1035100020E030E040E050E00E94C513C8014AE0DE
:1035200050E060E070E00E94491884E290E16EE5AE
:1035300074E00E945641DF91CF911F910F91089541
:1035400084E290E168E874E00E945641C8010E945C
:10355000D014DF91CF911F910F91089584E290E1F3
:1035600066E974E00E945641C8010E94D014DF91C0
:10357000CF911F910F910895C80161E020E030E0E4
:103580004FE753E40E94C513035B1F4FF8016081AE
:1035900071810D541040882777FD8095982F29E17F
:1035A00030E040E050E00E944448F80163A774A76F
:1035B00085A796A784E290E16EE774E00E94374108
:1035C000F80143A554A565A576A584E290E12AE01B
:1035D00030E00E940441F80163A574A585A596A575
:1035E0000E9429479B01AC0160E070E08FE793E403
:1035F0000E948E46F80165A376A387A390A783A5B2
:1036000094A5A5A5B6A581A392A3A3A3B4A3C8011D
:1036100060E070E020E030E040E050E00E94B21452
:10362000DF91CF911F910F91089584E290E16EE6B2
:1036300074E00E945641C80161E020E030E04FE7AD
:1036400053E40E94C5132AEF30E040E050E0F80157
:1036500023A734A745A756A78CE59FE8A2E8BFE3B8
:1036600085A396A3A7A3B0A721A332A343A354A3E2
:10367000C80160E070E020E030E040E050E00E94EF
:10368000B214DF91CF911F910F910895AF92BF9225
:10369000CF92DF92EF92FF920F931F93CF93DF931E
:1036A0005C01EB0169017A016631710509F406C11B
:1036B00067317105A4F16932710509F459C16A32A3
:1036C00071050CF46AC06B32710509F409C16B32E3
:1036D00071050CF0DDC1CA01B9010E94FB467B01F6
:1036E0008C01E4E4F0E0AE0EBF1ED5016C9384E2E1
:1036F00090E16AEF75E00E94374184E290E16E2D1F
:103700004AE050E00E94A140DF91CF911F910F91BC
:10371000FF90EF90DF90CF90BF90AF9008956A3008
:10372000710509F437C16B3071050CF04FC0613081
:10373000710509F465C16530710509F45DC1611554
:10374000710509F0ADC0EAE5F0E0AE0EBF1ED5018F
:103750008D919C91E6EAFFEFAE0EBF1E019779F4C2
:10376000D50117968D919C911897009709F4EAC19D
:103770008130910509F4E1C1029709F4F0C1C70154
:10378000B6010E94FB467B018C01C501B7010E9476
:10379000141AF501F286E186B7CF6831710509F494
:1037A000B4C0683171050CF460C06832710509F06D
:1037B00077C0CA01B9010E94FB467B018C01F5016B
:1037C00066AF84E290E162ED75E095CF64317105FA
:1037D00009F4B1C065317105E4F46B30710509F08D
:1037E0005FC08C010D5A1F4FCA01B9010E94FB46F0
:1037F000D8016C9384E290E165E175E00E94374165
:1038000084E290E1F80160814AE050E00E94A1402A
:103810007BCFCA01B90120E030E040E050E00E94D7
:10382000D94718160CF055C0C701B60120E030E0AA
:1038300040E85FE30E948A4688230CF04AC084E295
:1038400090E165E675E00E94374184E290E1B701BE
:10385000A60122E030E00E94A342D5019F96CD92BE
:10386000DD92ED92FC92D2974FCF2AE530E0A20E86
:10387000B31ED5018D919C91E6EAFFEFAE0EBF1EFF
:10388000019709F443C1F50187819085039708F0FA
:1038900023C184E290E161E475E00E94564134CF97
:1038A00084E290E160E276E00E94374184E290E1B8
:1038B000BE014AE050E00E94184126CFCA01B9017A
:1038C00020E030E040E050E00E94D94718160CF4A8
:1038D000C0C084E290E166E775E00E94564114CFD3
:1038E000CA01B9010E94FB467B018C01E5E4F0E0CE
:1038F000AE0EBF1ED5016C93C50109970E942B0E19
:1039000084E290E16CE076E0F6CECA01B9010E9453
:10391000FB46D501D7966C9384E290E167E975E0A8
:103920000E94374184E290E1F50167A94AE050E046
:103930000E94A140E9CE2AE530E0A20EB31ED501D7
:103940008D919C91E6EAFFEFAE0EBF1E019761F4E8
:10395000D5011F968C91882339F484E290E164E2CA
:1039600075E00E945641D0CEC5010E94D014CCCE45
:10397000CA01B9010E94FB467B018C01D501DF968B
:103980006C93C501CC960E942B0E84E290E165EE0B
:1039900075E0B1CEEC01CC5ADF4F688179818A8124
:1039A0009B810E948A468823B1F0C882D982EA822C
:1039B000FB82F50187819085892B69F484E290E18F
:1039C00063EF74E00E945641C5014AE050E060E0B8
:1039D00070E00E94491884E290E16AE075E00E947C
:1039E0003741488159816A817B8184E290E122E0FC
:1039F00030E00E94A34288CEDC01D9961C9284CE8E
:103A0000CA01B9010E94FB46D5011C967C936E93B6
:103A10001B9784E290E16BED74E00E943741F50161
:103A20006385748584E290E14AE050E00E94184189
:103A3000D50117968D919C911897019709F064CE46
:103A40001B968D919C911C971A969C938E93199717
:103A50005BCEC701B60120E030E040E85FE30E94A2
:103A60008A4688230CF035CF84E290E16EE775E05A
:103A70000E94374184E290E1B701A60122E030E0E4
:103A80000E94A342F501C3AAD4AAE5AAF6AA3CCE95
:103A90006436710509F004CFCA01B9010E94FB46E2
:103AA0006623D9F184E290E16BEA75E00E94564109
:103AB000F50112861186C50160E070E00E94141ABB
:103AC00081E0D5011F968C93EAE5F0E0AE0EBF1EB3
:103AD000D5011D921C9218CE84E290E163E575E059
:103AE0000E943741C701B6010E94F6467B018C0156
:103AF00084E290E1A701B8012AE030E00E9404418D
:103B0000C501A701B8010E943919FECDD5011F9644
:103B10008C91882309F0B7CE20CF84E290E16DEB41
:103B200075E00E945641EAE5F0E0AE0EBF1E81E06E
:103B300090E0D5018D939C93E7CD1F968C918823BF
:103B400009F41DCED501ED91FC910480F581E02DA5
:103B5000C50161E070E0A70196011995D5CD84E219
:103B600090E160EB74E00E945641CECD6F927F925F
:103B70008F929F92AF92BF92CF92DF92EF92FF927D
:103B80000F931F93DF93CF9300D0CDB7DEB77C01A7
:103B90000E94FE425B016C012CE530E0E20EF31E58
:103BA000F7018081918124EA3FEFE20EF31E029734
:103BB000D1F0FFE5CF2ED12CCE0CDF1CC6010E9428
:103BC00061350F900F900F90CF91DF911F910F9162
:103BD000FF90EF90DF90CF90BF90AF909F908F902D
:103BE0007F906F90089548E550E0E40EF51EF701D0
:103BF0008081918128EA3FEFE20EF31E892B09F4C0
:103C00003DC0F701878190858430910509F46FC02C
:103C10008630910509F46BC0059709F468C0F70177
:103C2000818D928DA38DB48DA81AB90ACA0ADB0AB8
:103C3000F8E8AF16F3E1BF06F0E0CF06F0E0DF06EC
:103C400008F07EC06FE5C62ED12CCE0CDF1CF7012C
:103C50008089882309F4B2CFA9E9BAE0E5EDFAE05A
:103C60008CE301900D928150E1F7F7018089882360
:103C700009F4A4CFC7010E941D17A0CFF7018189C5
:103C80009289A389B489A6019501281B390B4A0B97
:103C90005B0B283231054105510518F1F701A18A66
:103CA000B28AC38AD48A858D968DA78DB0A10196DC
:103CB000A11DB11D858F968FA78FB0A321A132A121
:103CC00043A154A1281739074A075B070CF0E8C045
:103CD000C70161E070E020E030E040E050E00E9489
:103CE000B214EFE5CE2ED12CCE0CDF1CBECFF701E7
:103CF00085899689A789B08DA6019501281B390B66
:103D00004A0B5B0B6FE470E0E60EF71EF701808153
:103D10009181A281B38161EB7FEFE60EF71E281738
:103D200039074A075B0708F47ACFC7010E94AA1631
:103D30000E94FE42F701658B768B878B908F6FCF49
:103D4000F701278130852730310549F0818592853B
:103D50002817390709F0ADC0C7010E94D6185FE5E2
:103D6000C52ED12CCE0CDF1CC6010E944234F701B7
:103D700020AD30E082179307C9F084E290E160E55E
:103D800076E00E943741C6010E944234BC0184E2C1
:103D900090E14AE050E00E941841F701158681E069
:103DA0008787C6010E944234F70180AFC6010E9496
:103DB0003A34182FC6010E943E34482F4E01089411
:103DC000811C911CC401612F0E94760D8701045C47
:103DD0001F4FC801B4010E94420E5C01F7018781A8
:103DE0009085009709F045C0F70117868091780902
:103DF000909179094DE4642E712C6E0C7F1CF301B7
:103E000091838083F7018685882309F48CC0F701AC
:103E10008585882309F46CC0F2E0AF16B10409F47B
:103E2000BEC023E0A216B10409F48CC031E0A31691
:103E3000B10459F584E290E16CEB76E00E945641C2
:103E400081E0F701878784E290E167EC76E00E94E9
:103E500056418EE190E0F30191838083C70161E0D8
:103E600070E00E94141AF7018385948592878187F8
:103E70000CC00797C9F1F4E0AF16B10409F49CC077
:103E8000F5E0AF16B10409F4B8C00E94FE42F70194
:103E9000618F728F838F948FC4010E947B0DD7CE68
:103EA000C7010E9419137FE5C72ED12CCE0CDF1C51
:103EB000DCCE84E290E161E376E00E943741F701D5
:103EC0006185728584E290E14AE050E00E941841E9
:103ED000F70161857285C7010E94141AF701818577
:103EE00092859087878338CFC7010E949A19CDCFDA
:103EF000C6010E943A34F70126AD30E0215030402F
:103F00008217930709F088CF84E290E168E776E0B2
:103F10000E945641F701858196810E940B0981E03C
:103F2000F701858779CF84E290E16FE576E00E9422
:103F30005641F701858196810E94FC0881E0F701D6
:103F4000868765CF84E290E16AEA76E00E94564176
:103F500081E0F7018787C6010E94A6348091780925
:103F6000909179096CE370E00E946F485B01C80191
:103F70000E94050F90E0A816B9060CF46ACFA81AA3
:103F8000B90A8CE390E09C01A29EC001A39E900D13
:103F9000B29E900D1124F301918380835FCF84E260
:103FA00090E16BE976E00E94564181E0F701878756
:103FB000C6010E94A63452CF84E290E169ED76E01A
:103FC0000E945641F70117861686809178099091D4
:103FD00079092DE430E0E20EF31EF701918380832E
:103FE00023EB3FEFE20EF31EC70162E070E00E9498
:103FF000141AF7011286118648CF84E290E167EE29
:1040000076E00E945641F70117861686809178095E
:10401000909179096CE370E00E946F485B01C801E0
:104020000E94050F90E0A816B90674F42DE430E064
:10403000E20EF31E8EE190E0F7019183808323EB83
:104040003FEFE20EF31ED0CF4DE450E0E40EF51E3C
:10405000A81AB90A8CE390E0BC01A69EC001A79EF5
:10406000900DB69E900D1124F7019183808323EB70
:104070003FEFE20EF31EB8CF8F929F92AF92BF92A6
:10408000CF92DF92EF92FF920F931F93DF93CF9324
:1040900000D000D0CDB7DEB74C0100E010E0AA247C
:1040A000BB24F501EE0FFF1FEA0DFB1DE00FF11F12
:1040B000E759F64F808161E00E94DE440894A11C1C
:1040C000B11C85E0A816B10461F70F5F1F4F0330E4
:1040D000110529F7C40160E020E030E040E050E045
:1040E0000E94C513C40161E020E030E040E050E0F0
:1040F0000E94C513C4010E941D17AFE5CA2ED12C22
:10410000C80CD91CC6010E94923584E290E168EF88
:1041100076E00E9456417E010894E11CF11CC70123
:104120006CE04EE10E94760D8E010C5F1F4FC801BE
:1041300067E14EE10E94760DF401E35BFF4F808161
:1041400091816CE370E00E946F48262FC401CC96E9
:10415000B701A8010E94540F80E00E94CA430E9448
:104160001C46C6010E944234F40180AF84E290E113
:104170006EE077E00E94374184E290E1F40160ADA7
:104180004AE050E00E94A140C40161E070E020E0FC
:1041900030E040E050E00E94B214F4011086178233
:1041A00012861186B486A386C40160E070E00E9486
:1041B000141AC40148E853E160E070E00E94391924
:1041C0000E94FE42F401618B728B838B948B0E9460
:1041D000FE42F401618F728F838F948F158A168A45
:1041E000178A108E8CE590E0880E991E82E090E090
:1041F000F4019183808384E290E164E177E00E949E
:104200005641C8010E947B0DC7010E947B0D269676
:104210000FB6F894DEBF0FBECDBFCF91DF911F91D7
:104220000F91FF90EF90DF90CF90BF90AF909F9055
:104230008F900895CF92DF92EF92FF920F931F938A
:104240008130910561F0892B19F46F5F7F4FB1F1D7
:104250001F910F91FF90EF90DF90CF9008956F5FC7
:104260007F4FB1F78DE39CE060E20E9464378BE4FE
:104270009CE00E94983381E59CE060E070E04DE3B3
:104280005CE02AE739E002E819E0FAE8EF2EF9E00D
:10429000FF2EE2E9CE2EE9E0DE2E0E947D1280E7BD
:1042A0009CE00E94060D86EB9CE06DE37CE04BE415
:1042B0005CE020E73CE00E94CA17CACF86EB9CE096
:1042C0000E94991780E79CE00E94D50C81E59CE054
:1042D0000E944C128BE49CE00E949E331F910F9130
:1042E000FF90EF90DF90CF90089580E090E06FEF27
:1042F0007FEF0E941A21089581E090E06FEF7FEF39
:104300000E941A21089580E79CE00E94940A81E5AA
:104310009CE00E94AF0886EB9CE00E94B61D0895C9
:10432000EF92FF920F931F938AE89DE00E947438EA
:1043300084E290E140E855E260E070E00E94F63CE3
:104340008BE49CE00E94FE3301E51CE0C8010E9462
:10435000AC11A6EBEA2EACE0FA2EC7010E943C207D
:10436000F0927F0CE0927E0C065F1F4F1093810C41
:104370000093800C80E79CE00E94A40C0E94FE4207
:1043800060932E0D70932F0D8093300D9093310D0F
:104390001F910F91FF90EF900895FC0122853385C6
:1043A00044855585B901CA0108950F931F938C0167
:1043B000FC01828993890E941737F801608971890D
:1043C000828993890E94F636F8018289938964E490
:1043D00040E00E94B7361F910F9108956F927F922F
:1043E0008F929F92AF92BF92CF92DF92EF92FF9205
:1043F0000F931F93CF93DF938C016B01FC01828994
:1044000093890E941737F80160897189828993899D
:104410000E94F636F801828993896EEB40E00E9493
:10442000B736C0E0D0E0F801828993890E945F36F8
:10443000F601EC0FFD1F80832196C930D10599F755
:10444000F6018081282F30E08181813828F0232BEC
:1044500009F046C02EEF3FEFF601E780FF243595C7
:104460002795B901882777FD8095982F0E942947C5
:1044700020E030E040E85EE30E9425463B014C012D
:10448000F6018681B701681B7109882777FD809541
:10449000982F0E9429475B016C010027F7FC0095CB
:1044A000102FC801B7010E9429479B01AC01C6012A
:1044B000B5010E948E469B01AC01C401B3010E946C
:1044C0002646DF91CF911F910F91FF90EF90DF90E3
:1044D000CF90BF90AF909F908F907F906F900895F6
:1044E0002FEF3FEFB9CFEF92FF920F931F93DF9320
:1044F000CF93CDB7DEB72C970FB6F894DEBF0FBEC3
:10450000CDBF7C01FC018489882301F581E0F7019E
:10451000848BC7018E010F5F1F4FB8010E94EE21EF
:10452000C701B8010E94EE21F70162877387848773
:1045300095872C960FB6F894DEBF0FBECDBFCF91F6
:10454000DF911F910F91FF90EF900895C7010E9496
:10455000D521F701148AEDCF0F931F938C010E9490
:10456000DF08D80150968D919C91519767E00E9489
:104570001236D8015096ED91FC9151979781891789
:1045800031F084E290E160E277E00E9456411F91B1
:104590000F910895FC0185E49AE091838083CF0117
:1045A0000E942F0D08950F931F938C0185E49AE0CC
:1045B000F80191838083C8010E942F0DC8010E94D9
:1045C000753F1F910F9108956F927F928F929F92E6
:1045D000AF92BF92CF92DF92EF92FF920F931F9311
:1045E0006C014B013A015901B801A7010E94490D24
:1045F00085E49AE0F6019183808397868686B18A66
:10460000A08A738A628A80E090E0A0E0B0E08287AE
:104610009387A487B58781E0848B1F910F91FF90CA
:10462000EF90DF90CF90BF90AF909F908F907F9052
:104630006F9008950F931F93CF93DF93FC01138E18
:10464000128E118E108E178A168A8C01C0E0D0E06F
:1046500060E070E080E090E02FEF30E040E050E07C
:104660000E94FE45F801758F648F21960E5F1F4FE3
:10467000C830D10569F7DF91CF911F910F9108954F
:104680002F923F924F925F926F927F928F929F9262
:10469000AF92BF92CF92DF92EF92FF920F931F9350
:1046A000DF93CF93CDB7DEB7C259D0400FB6F894A1
:1046B000DEBF0FBECDBFE3969FAF8EAFE3972A015B
:1046C0003B01A7960CAF1DAF2EAF3FAFA797AB96A0
:1046D000CCAEDDAEEEAEFFAEAB97CB01BA01A90119
:1046E00098010E942646A70196010E9426462BEAC1
:1046F0003AEA4AEA5EE30E94DD479B01AC01E39699
:10470000AEADBFADE39752966D937D938D939C9321
:104710005597C301B2010E9426467B018C0120E01F
:1047200030E040E050E00E94D947181614F00C9495
:10473000CE30C801B7010E94F646E396EEADFFAD5C
:10474000E39771836083A7966CAD7DAD8EAD9FAD11
:10475000A79722893389448955890E9426467B017F
:104760008C0120E030E040E050E00E94D94718166C
:1047700014F00C94C630C801B7010E94F646E396C7
:10478000AEADBFADE39713967C936E931297AB9645
:104790006CAD7DAD8EAD9FADAB9752962D913D9199
:1047A0004D915C9155970E9426467B018C0120E03B
:1047B00030E040E050E00E94D947181614F00C9405
:1047C000BC30C801B7010E94F6464B01E396EEAD3E
:1047D000FFADE3979582848222813381AF963FAF0C
:1047E0002EAFAF9740815181AD965FAF4EAFAD9781
:1047F000B901640F751F680D791D882777FD8095B5
:10480000982F0E9429472BEA3AEA4AE25EE30E9487
:10481000DD477B018C01E396AEADBFADE3975296C9
:104820006D937D938D939C935597AD96EEADFFADB3
:10483000AD97BF01882777FD8095982F0E94294763
:104840009B01AC01C301B2010E9425469B01AC0152
:10485000C801B7010E9426465B016C01E396AEAD2C
:10486000BFADE39716966D937D938D939C931997A7
:10487000AF96EEADFFADAF97BF01882777FD80956E
:10488000982F0E9429479B01AC01A7966CAD7DAD86
:104890008EAD9FADA7970E942546A80197010E9463
:1048A00026462B013C01E396AEADBFADE3971A96C9
:1048B0006D937D938D939C931D97B401882777FD0D
:1048C0008095982F0E9429479B01AC01AB966CAD57
:1048D0007DAD8EAD9FADAB970E942546A801970197
:1048E0000E9426467B018C01E396EEADFFADE39777
:1048F00066877787808B918B138E128E118E108E28
:10490000178A168AC601B501A80197010E94D947E6
:10491000882314F40C945F308824C601B501A301E8
:1049200092010E94D947882314F08824839481E05F
:104930008826282D30E0A3963FAF2EAFA39743E003
:1049400050E0421B530B5A8B498BC601B501A8019D
:1049500097010E948A46882314F40C948730C8017A
:10496000B701A30192010E94D947181614F40C94C0
:10497000733082E090E0A1969FAF8EAFA197E3964F
:10498000EEADFFADE397A28CB38CC08CD18CB5019A
:104990006C0D7D1D882777FD8095982F0E942947F3
:1049A0002BEA3AEA4AE25EE30E94DD477B018C0192
:1049B000E396AEADBFADE39752966D937D938D9325
:1049C0009C93559756968D909C905797B401882745
:1049D00077FD8095982F0E9429479B01AC01E396B3
:1049E000EEADFFADE39766817781808591850E946A
:1049F00025469B01AC01C801B7010E94264663967B
:104A00006CAF7DAF8EAF9FAF6397B601882777FD00
:104A10008095982F0E9429479B01AC01E396AEAD8B
:104A2000BFADE3971A966D917D918D919C911D97E5
:104A30000E9425469B01AC01C801B7010E94264691
:104A40006D877E878F87988BB501882777FD809546
:104A5000982F0E9429479B01AC01E396EEADFFAD74
:104A6000E39766857785808991890E9425469B0119
:104A7000AC01C801B7010E9426462B013C01639698
:104A80006CAD7DAD8EAD9FAD63979B01AC010E9477
:104A9000DD479B01AC016AE979E989E19FE30E9466
:104AA00025467B018C016D857E858F8598899B01CC
:104AB000AC010E94DD479B01AC01C801B7010E9417
:104AC00025467B018C01C301B201A30192010E9422
:104AD000DD479B01AC01C801B7010E9425462F9616
:104AE0006CAF7DAF8EAF9FAF2F97AD962EAD3FAD24
:104AF000AD97820E931EAF964EAD5FADAF97C40ECD
:104B0000D51EE396AEADBFADE39714960D90BC9164
:104B1000A02DE196BFAFAEAFE197AA0EBB1EF40188
:104B2000E170F070EE0FFF1FEE0FFF1FC6018170E6
:104B30009070880F991FE82BF92BC5018170907038
:104B4000E82BF92B3E96EE0FFF1FE3962EAD3FADFF
:104B5000E397E20FF31F408151816B965FAF4EAF39
:104B60006B97F601EE0FFF1FE470F070C5018270C5
:104B70009070E82BF92BC401959587958170907002
:104B8000E82BF92B3E96EE0FFF1FE20FF31F8081FB
:104B9000918169969FAF8EAF6997F501E470F070CF
:104BA000C4019695879582709070E82BF92BC60109
:104BB000959587959595879581709070E82BF92B41
:104BC0003E96EE0FFF1FE20FF31F00811181F401EB
:104BD000F695E795E470F070C601969587959695E1
:104BE000879582709070E82BF92BC5019595879574
:104BF000959587959595879581709070E82BF92B01
:104C00003E96EE0FFF1FE20FF31FA081B181679662
:104C1000BFAFAEAF6797F601F695E795F695E795C6
:104C2000E470F070C5019695879596958795969551
:104C3000879582709070E82BF92BC4019595879524
:104C400095958795959587959595879581709070A1
:104C5000E82BF92B3E96EE0FFF1FE20FF31F20818A
:104C6000318165963FAF2EAF6597F501F695E795D3
:104C7000F695E795F695E795E470F070C401929586
:104C800082958F7089279F70892782709070E82B9A
:104C9000F92BC60195958795959587959595879557
:104CA000959587959595879581709070E82BF92B50
:104CB0003E96EE0FFF1FE3964EAD5FADE397E40F18
:104CC000F51F20803180F401F295E295EF70EF2717
:104CD000FF70EF27E470F070C60196958795929566
:104CE00082958F7089279F70892782709070E82B3A
:104CF000F92B0A2CAB2C000CAA1CBB08000CAA1C1C
:104D0000BB1CC50181709070E82BF92B3E96EE0F0D
:104D1000FF1FE40FF51FE080F180CC0CCD2CCC1CE4
:104D2000DD0851E0C522DD24CC0CDD1CCC0CDD1CE3
:104D3000B594A79481E0A822BB24AA0CBB1CCA2866
:104D4000DB28880C892C881C990891E089229924F9
:104D5000C828D928AEE0B0E0CA0EDB1ECC0CDD1CA2
:104D6000E396EEADFFADE397CE0EDF1ED601CD90FC
:104D7000DC90A396EEADFFADA3973B96EE0FFF1F21
:104D8000E3962EAD3FADE397E20FF31F8081918153
:104D90000196918380832F966CAD7DAD8EAD9FADD6
:104DA0002F9720E030E040E050E00E948A468823C0
:104DB00014F40C94D6306996AEADBFAD69970A0F66
:104DC0001B1F6B96EEADFFAD6B970E0F1F1F679607
:104DD0002EAD3FAD6797020F131F65964EAD5FADC9
:104DE0006597040F151F020D131D0E0D1F1D0C0DD1
:104DF0001D1D7801F594E794F594E794F594E794F4
:104E0000F594E794F594E79451E0E522FF246801D6
:104E1000D594C794D594C794D594C794D594C79482
:104E200081E0C822DD244801959487949594879465
:104E30009594879491E08922992483E0A82EB12C3F
:104E4000A022B122A1E0AA16B10411F40C94D7312A
:104E500092E0A916B10451F1C201B30163964CACC2
:104E60005DAC6EAC7FAC63972D853E854F855889D0
:104E700063962CAF3DAF4EAF5FAF63979C01AB0124
:104E8000E8968FAFE897E9963FAFE997EA966FAF5C
:104E9000EA97EB965FAFEB97EB968CAD9DADAEAD21
:104EA000BFADEB978D879E87AF87B88BE814F90469
:104EB00011F40C94CC31EC14FD0411F40C94013178
:104EC0008C249D24E814F90469F063968CAD9DADA3
:104ED000AEADBFAD6397B05863968CAF9DAFAEAF2C
:104EE000BFAF63972F966CAD7DAD8EAD9FAD2F9705
:104EF0009B01AC010E94DD476B017C01AB2811F0E6
:104F00000C94B030C301B20163962CAD3DAD4EADF3
:104F10005FAD63970E9426462B013C01C701B60195
:104F200020E030E040E051E40E94DD479B01AC010D
:104F3000C701B6010E94DD477B018C016D857E852E
:104F40008F859889A30192010E9426469B01AC019E
:104F5000C801B7010E94DD476F966CAF7DAF8EAF81
:104F60009FAF6F97A989BA89A196EEADFFADA197C2
:104F7000AE1BBF0BBA8BA98BE396AEADBFADE3976B
:104F80005896CD90DC90599756968D909C90579757
:104F9000B601680D791D5A96AD90BC905B976A0D6D
:104FA0007B1D882777FD8095982F0E9429472BEA43
:104FB0003AEA4AE25EE30E94DD477B018C01E39618
:104FC000EEADFFADE397628B738B848B958BB40151
:104FD000882777FD8095982F0E9429479B01AC0177
:104FE000E396AEADBFADE39716966D917D918D9131
:104FF0009C9119970E9425469B01AC01C801B701FD
:105000000E9426466BAF7CAF8DAF9EAFB60188275E
:1050100077FD8095982F0E9429479B01AC01E3966C
:10502000EEADFFADE39762857385848595850E941B
:1050300025469B01AC01C801B7010E94264669873D
:105040007A878B879C87B501882777FD8095982F75
:105050000E9429479B01AC01E396AEADBFADE3973B
:105060001E966D917D918D919C9151970E94254640
:105070009B01AC01C801B7010E9426462B013C01EF
:105080006BAD7CAD8DAD9EAD9B01AC010E94DD474B
:105090009B01AC016AE979E989E19FE30E94254619
:1050A0007B018C0169857A858B859C859B01AC0190
:1050B0000E94DD479B01AC01C801B7010E94254653
:1050C0007B018C01C301B201A30192010E94DD4763
:1050D0009B01AC01C801B7010E9425466FAB78AFB8
:1050E00089AF9AAFAD96EEADFFADAD978E0E9F1E18
:1050F000AF962EAD3FADAF97C20ED31EE1964EAD2B
:105100005FADE197A40EB51EF401E170F070EE0FF3
:10511000FF1FEE0FFF1FC60181709070880F991F4F
:10512000E82BF92BC50181709070E82BF92B3E9686
:10513000EE0FFF1FE3968EAD9FADE397E80FF91FCB
:10514000A081B1812796BFAFAEAF2797F601EE0FD2
:10515000FF1FE470F070C50182709070E82BF92B8E
:10516000C4019595879581709070E82BF92B3E9638
:10517000EE0FFF1FE3962EAD3FADE397E20FF31F57
:105180004081518125965FAF4EAF2597F501E470C0
:10519000F070C4019695879582709070E82BF92B7A
:1051A000C601959587959595879581709070E82BA8
:1051B000F92B3E96EE0FFF1FE20FF31F00811181C6
:1051C000F401F695E795E470F070C6019695879521
:1051D0009695879582709070E82BF92BC50195956F
:1051E0008795959587959595879581709070E82B13
:1051F000F92B3E96EE0FFF1FE20FF31F8081918186
:1052000023969FAF8EAF2397F601F695E795F69517
:10521000E795E470F070C50196958795969587950A
:105220009695879582709070E82BF92BC40195951F
:10523000879595958795959587959595879581708F
:105240009070E82BF92B3E96EE0FFF1FE20FF31F35
:10525000A081B1812196BFAFAEAF2197F501F69540
:10526000E795F695E795F695E795E470F070C4013B
:10527000929582958F7089279F7089278270907090
:10528000E82BF92BC601959587959595879595956A
:105290008795959587959595879581709070E82B62
:1052A000F92B3E96EE0FFF1FE20FF31F2080318097
:1052B000F401F295E295EF70EF27FF70EF27E470AD
:1052C000F070C60196958795929582958F70892783
:1052D0009F70892782709070E82BF92B0A2CAB2CD9
:1052E000000CAA1CBB08000CAA1CBB1CC5018170C9
:1052F0009070E82BF92B3E96EE0FFF1FE20FF31F85
:10530000E080F180CC0CCD2CCC1CDD08B1E0CB22B0
:10531000DD24CC0CDD1CCC0CDD1CB594A794E1E0A5
:10532000AE22BB24AA0CBB1CCA28DB28880C892C03
:10533000881C9908F1E08F229924C828D9282EE0EA
:1053400030E0C20ED31ECC0CDD1CE3964EAD5FAD3B
:10535000E397C40ED51ED601CD90DC90E989FA8979
:105360003B96EE0FFF1FE40FF51F808191810196A0
:10537000918380836FA978AD89AD9AAD20E030E04C
:1053800040E050E00E948A4688230CF42FC72596FF
:105390004EAD5FAD2597040F151F27968EAD9FADBF
:1053A0002797080F191F2396AEADBFAD23970A0F9D
:1053B0001B1F2196EEADFFAD21970E0F1F1F020D93
:1053C000131D0E0D1F1D0C0D1D1D7801F594E79486
:1053D000F594E794F594E794F594E794F594E794BD
:1053E000F1E0EF22FF246801D594C794D594C794C7
:1053F000D594C794D594C79421E0C222DD244801F6
:1054000095948794959487949594879431E083221A
:10541000992483E0A82EB12CA022B12241E0A41649
:10542000B10409F47DC792E0A916B10481F1C2016B
:10543000B3014BAC5CAC6DAC7EAC29853A854B8539
:105440005C852BAF3CAF4DAF5EAF9C01AB01C1584B
:10545000DF4F8883CF57D040C058DF4F3883C058C4
:10546000D040CF57DF4F6883C158D040CE57DF4F71
:105470005883C258D040C158DF4F88819981AA8192
:10548000BB81CF57D04089879A87AB87BC87E81408
:10549000F90409F46FC7EC14FD0409F478C78C24EF
:1054A0009D24E814F90449F08BAD9CADADADBEADC3
:1054B000B0588BAF9CAFADAFBEAF6FA978AD89AD23
:1054C0009AAD9B01AC010E94DD476B017C01AB28CA
:1054D00009F03FC6C301B2012BAD3CAD4DAD5EAD91
:1054E0000E9426462B013C01C701B60120E030E0B6
:1054F00040E051E40E94DD479B01AC01C701B601C9
:105500000E94DD477B018C0169857A858B859C85AE
:10551000A30192010E9426469B01AC01C801B7017C
:105520000E94DD472B966CAF7DAF8EAF9FAF2B9760
:10553000E396AEADBFADE3975896CD90DC9059970A
:1055400056968D909C905797B601680D791D5A9686
:10555000AD90BC905B976A0D7B1D882777FD809589
:10556000982F0E9429472BEA3AEA4AE25EE30E941A
:10557000DD477B018C01E396EEADFFADE397628BD7
:10558000738B848B958BB401882777FD8095982F3A
:105590000E9429479B01AC01E396AEADBFADE397F6
:1055A00016966D917D918D919C9119970E9425463B
:1055B0009B01AC01C801B7010E9426466FA378A7E2
:1055C00089A79AA7B601882777FD8095982F0E9412
:1055D00029479B01AC01E396EEADFFADE3976285F1
:1055E0007385848595850E9425469B01AC01C80181
:1055F000B7010E9426466D837E838F839887B5010D
:10560000882777FD8095982F0E9429479B01AC0140
:10561000E396AEADBFADE3971E966D917D918D91F2
:105620009C9151970E9425469B01AC01C801B7018E
:105630000E9426462B013C016FA178A589A59AA559
:105640009B01AC010E94DD479B01AC016AE979E94D
:1056500089E19FE30E9425467B018C016D817E815B
:105660008F8198859B01AC010E94DD479B01AC01B5
:10567000C801B7010E9425467B018C01C301B2011C
:10568000A30192010E94DD479B01AC01C801B70153
:105690000E9425466BA37CA38DA39EA3AD96EEAD81
:1056A000FFADAD978E0E9F1EAF962EAD3FADAF975F
:1056B000C20ED31EE1964EAD5FADE197A40EB51EAE
:1056C000F401E170F070EE0FFF1FEE0FFF1FC60137
:1056D00081709070880F991FE82BF92BC50181709C
:1056E0009070E82BF92B3E96EE0FFF1FE3968EADE0
:1056F0009FADE397E80FF91FA081B181BAABA9ABC9
:10570000F601EE0FFF1FE470F070C501827090701B
:10571000E82BF92BC4019595879581709070E82B43
:10572000F92B3E96EE0FFF1FE3962EAD3FADE397AC
:10573000E20FF31F4081518158AB4FA7F501E47090
:10574000F070C4019695879582709070E82BF92BC4
:10575000C601959587959595879581709070E82BF2
:10576000F92B3E96EE0FFF1FE20FF31F0081118110
:10577000F401F695E795E470F070C601969587956B
:105780009695879582709070E82BF92BC5019595B9
:105790008795959587959595879581709070E82B5D
:1057A000F92B3E96EE0FFF1FE20FF31F80819181D0
:1057B0009EA78DA7F601F695E795F695E795E47017
:1057C000F070C501969587959695879596958795DE
:1057D00082709070E82BF92BC4019595879595956B
:1057E0008795959587959595879581709070E82B0D
:1057F000F92B3E96EE0FFF1FE20FF31FA081B18140
:10580000BCA7ABA7F501F695E795F695E795F69554
:10581000E795E470F070C401929582958F708927A6
:105820009F70892782709070E82BF92BC60195959F
:105830008795959587959595879595958795959550
:10584000879581709070E82BF92B3E96EE0FFF1F25
:10585000E20FF31F20803180F401F295E295EF70A2
:10586000EF27FF70EF27E470F070C60196958795DB
:10587000929582958F7089279F708927827090708A
:10588000E82BF92B0A2CAB2C000CAA1CBB08000C33
:10589000AA1CBB1CC50181709070E82BF92B3E96A9
:1058A000EE0FFF1FE20FF31FE080F180CC0CCD2C38
:1058B000CC1CDD08B1E0CB22DD24CC0CDD1CCC0CF3
:1058C000DD1CB594A794E1E0AE22BB24AA0CBB1C5E
:1058D000CA28DB28880C892C881C9908F1E08F22C3
:1058E0009924C828D9282EE030E0C20ED31ECC0C53
:1058F000DD1CE3964EAD5FADE397C40ED51ED60119
:10590000CD90DC90A196EEADFFADA1973B96EE0F4A
:10591000FF1FE40FF51F80819181019691838083A1
:105920006BA17CA18DA19EA120E030E040E050E081
:105930000E948A4688230CF450C44FA558A9040F2E
:10594000151F89A99AA9080F191FADA5BEA50A0F91
:105950001B1FEBA5FCA50E0F1F1F020D131D0E0D27
:105960001F1D0C0D1D1D7801F594E794F594E79427
:10597000F594E794F594E794F594E794F1E0EF2239
:10598000FF246801D594C794D594C794D594C7943F
:10599000D594C79421E0C222DD24480195948794D0
:1059A000959487949594879431E083229924B3E069
:1059B000AB2EB12CA022B12241E0A416B10409F40F
:1059C0007EC492E0A916B10481F1C201B3014FA0D7
:1059D00058A469A47AA42D813E814F8158852FA3B4
:1059E00038A749A75AA79C01AB01C957DF4F888345
:1059F000C758D040C857DF4F3883C858D040C75722
:105A0000DF4F6883C958D040C657DF4F5883CA5804
:105A1000D040C957DF4F88819981AA81BB81C7587F
:105A2000D0408D839E83AF83B887E814F90409F4CE
:105A300034C4EC14FD0409F43DC48C249D24E81402
:105A4000F90449F08FA198A5A9A5BAA5B0588FA3CC
:105A500098A7A9A7BAA76BA17CA18DA19EA19B0124
:105A6000AC010E94DD476B017C01AB2809F06AC3E1
:105A7000C301B2012FA138A549A55AA50E94264607
:105A80002B013C01C701B60120E030E040E051E4C9
:105A90000E94DD479B01AC01C701B6010E94DD47B2
:105AA0007B018C016D817E818F819885A30192019C
:105AB0000E9426469B01AC01C801B7010E94DD4748
:105AC0006BAB7CAB8DAB9EABE396AEADBFADE3975E
:105AD0005896CD90DC90599756968D909C905797FC
